{
  "_format": "hh-sol-artifact-1",
  "contractName": "MLTokenLockup",
  "sourceName": "contracts/MLTokenLockup.sol",
  "abi": [
    {
      "inputs": [
        {
          "internalType": "address",
          "name": "_token",
          "type": "address"
        },
        {
          "internalType": "uint256",
          "name": "_startTime",
          "type": "uint256"
        },
        {
          "internalType": "uint256",
          "name": "_claimDelay",
          "type": "uint256"
        },
        {
          "components": [
            {
              "internalType": "uint256",
              "name": "endTime",
              "type": "uint256"
            },
            {
              "internalType": "uint256",
              "name": "portion",
              "type": "uint256"
            }
          ],
          "internalType": "struct ITokenLockup.Schedule[]",
          "name": "_schedule",
          "type": "tuple[]"
        }
      ],
      "stateMutability": "nonpayable",
      "type": "constructor"
    },
    {
      "anonymous": false,
      "inputs": [
        {
          "indexed": true,
          "internalType": "address",
          "name": "oldRecipient",
          "type": "address"
        },
        {
          "indexed": true,
          "internalType": "address",
          "name": "newRecipient",
          "type": "address"
        }
      ],
      "name": "ChangeRecipient",
      "type": "event"
    },
    {
      "anonymous": false,
      "inputs": [
        {
          "indexed": true,
          "internalType": "address",
          "name": "recipient",
          "type": "address"
        },
        {
          "indexed": false,
          "internalType": "uint256",
          "name": "claimed",
          "type": "uint256"
        }
      ],
      "name": "Claim",
      "type": "event"
    },
    {
      "anonymous": false,
      "inputs": [
        {
          "indexed": true,
          "internalType": "address",
          "name": "recipient",
          "type": "address"
        },
        {
          "indexed": false,
          "internalType": "uint256",
          "name": "amount",
          "type": "uint256"
        }
      ],
      "name": "Fund",
      "type": "event"
    },
    {
      "anonymous": false,
      "inputs": [
        {
          "indexed": true,
          "internalType": "address",
          "name": "previousOwner",
          "type": "address"
        },
        {
          "indexed": true,
          "internalType": "address",
          "name": "newOwner",
          "type": "address"
        }
      ],
      "name": "OwnershipTransferred",
      "type": "event"
    },
    {
      "anonymous": false,
      "inputs": [
        {
          "indexed": true,
          "internalType": "address",
          "name": "recipient",
          "type": "address"
        },
        {
          "indexed": false,
          "internalType": "uint256",
          "name": "claimed",
          "type": "uint256"
        }
      ],
      "name": "Reclaim",
      "type": "event"
    },
    {
      "inputs": [
        {
          "internalType": "uint256",
          "name": "amount",
          "type": "uint256"
        }
      ],
      "name": "addTokens",
      "outputs": [],
      "stateMutability": "nonpayable",
      "type": "function"
    },
    {
      "inputs": [
        {
          "internalType": "address",
          "name": "account",
          "type": "address"
        }
      ],
      "name": "balanceOf",
      "outputs": [
        {
          "internalType": "uint256",
          "name": "",
          "type": "uint256"
        }
      ],
      "stateMutability": "view",
      "type": "function"
    },
    {
      "inputs": [
        {
          "internalType": "address",
          "name": "newRecipient",
          "type": "address"
        }
      ],
      "name": "changeRecipient",
      "outputs": [],
      "stateMutability": "nonpayable",
      "type": "function"
    },
    {
      "inputs": [],
      "name": "claim",
      "outputs": [],
      "stateMutability": "nonpayable",
      "type": "function"
    },
    {
      "inputs": [],
      "name": "claimDelay",
      "outputs": [
        {
          "internalType": "uint256",
          "name": "",
          "type": "uint256"
        }
      ],
      "stateMutability": "view",
      "type": "function"
    },
    {
      "inputs": [
        {
          "internalType": "address[]",
          "name": "recipients",
          "type": "address[]"
        },
        {
          "internalType": "uint256[]",
          "name": "amounts",
          "type": "uint256[]"
        }
      ],
      "name": "fund",
      "outputs": [],
      "stateMutability": "nonpayable",
      "type": "function"
    },
    {
      "inputs": [
        {
          "internalType": "address",
          "name": "",
          "type": "address"
        }
      ],
      "name": "initialLocked",
      "outputs": [
        {
          "internalType": "uint256",
          "name": "",
          "type": "uint256"
        }
      ],
      "stateMutability": "view",
      "type": "function"
    },
    {
      "inputs": [],
      "name": "initialLockedSupply",
      "outputs": [
        {
          "internalType": "uint256",
          "name": "",
          "type": "uint256"
        }
      ],
      "stateMutability": "view",
      "type": "function"
    },
    {
      "inputs": [
        {
          "internalType": "address",
          "name": "account",
          "type": "address"
        }
      ],
      "name": "lockedOf",
      "outputs": [
        {
          "internalType": "uint256",
          "name": "",
          "type": "uint256"
        }
      ],
      "stateMutability": "view",
      "type": "function"
    },
    {
      "inputs": [],
      "name": "lockedSupply",
      "outputs": [
        {
          "internalType": "uint256",
          "name": "",
          "type": "uint256"
        }
      ],
      "stateMutability": "view",
      "type": "function"
    },
    {
      "inputs": [],
      "name": "owner",
      "outputs": [
        {
          "internalType": "address",
          "name": "",
          "type": "address"
        }
      ],
      "stateMutability": "view",
      "type": "function"
    },
    {
      "inputs": [],
      "name": "renounceOwnership",
      "outputs": [],
      "stateMutability": "nonpayable",
      "type": "function"
    },
    {
      "inputs": [
        {
          "internalType": "uint256",
          "name": "",
          "type": "uint256"
        }
      ],
      "name": "schedule",
      "outputs": [
        {
          "internalType": "uint256",
          "name": "endTime",
          "type": "uint256"
        },
        {
          "internalType": "uint256",
          "name": "portion",
          "type": "uint256"
        }
      ],
      "stateMutability": "view",
      "type": "function"
    },
    {
      "inputs": [],
      "name": "startTime",
      "outputs": [
        {
          "internalType": "uint256",
          "name": "",
          "type": "uint256"
        }
      ],
      "stateMutability": "view",
      "type": "function"
    },
    {
      "inputs": [],
      "name": "token",
      "outputs": [
        {
          "internalType": "address",
          "name": "",
          "type": "address"
        }
      ],
      "stateMutability": "view",
      "type": "function"
    },
    {
      "inputs": [
        {
          "internalType": "address",
          "name": "",
          "type": "address"
        }
      ],
      "name": "totalClaimed",
      "outputs": [
        {
          "internalType": "uint256",
          "name": "",
          "type": "uint256"
        }
      ],
      "stateMutability": "view",
      "type": "function"
    },
    {
      "inputs": [
        {
          "internalType": "address",
          "name": "newOwner",
          "type": "address"
        }
      ],
      "name": "transferOwnership",
      "outputs": [],
      "stateMutability": "nonpayable",
      "type": "function"
    },
    {
      "inputs": [],
      "name": "unallocatedSupply",
      "outputs": [
        {
          "internalType": "uint256",
          "name": "",
          "type": "uint256"
        }
      ],
      "stateMutability": "view",
      "type": "function"
    },
    {
      "inputs": [
        {
          "internalType": "address",
          "name": "account",
          "type": "address"
        }
      ],
      "name": "unlockedOf",
      "outputs": [
        {
          "internalType": "uint256",
          "name": "",
          "type": "uint256"
        }
      ],
      "stateMutability": "view",
      "type": "function"
    },
    {
      "inputs": [],
      "name": "unlockedSupply",
      "outputs": [
        {
          "internalType": "uint256",
          "name": "",
          "type": "uint256"
        }
      ],
      "stateMutability": "view",
      "type": "function"
    }
  ],
  "bytecode": "0x60806040523480156200001157600080fd5b5060405162002080380380620020808339818101604052810190620000379190620005ea565b620000576200004b6200029760201b60201c565b6200029f60201b60201c565b428310156200009d576040517f08c379a00000000000000000000000000000000000000000000000000000000081526004016200009490620006dc565b60405180910390fd5b83600160006101000a81548173ffffffffffffffffffffffffffffffffffffffff021916908373ffffffffffffffffffffffffffffffffffffffff16021790555082600281905550816003819055506000815190506000805b828110156200024457838181518110620001155762000114620006fe565b5b602002602001015160200151826200012e91906200075c565b915060008114620001cf578381815181106200014f576200014e620006fe565b5b602002602001015160000151846001836200016b919062000797565b815181106200017f576200017e620006fe565b5b60200260200101516000015110620001ce576040517f08c379a0000000000000000000000000000000000000000000000000000000008152600401620001c59062000822565b60405180910390fd5b5b6004848281518110620001e757620001e6620006fe565b5b602002602001015190806001815401808255809150506001900390600052602060002090600202016000909190919091506000820151816000015560208201518160010155505080806200023b9062000844565b915050620000f6565b50606481146200028b576040517f08c379a00000000000000000000000000000000000000000000000000000000081526004016200028290620008e1565b60405180910390fd5b50505050505062000903565b600033905090565b60008060009054906101000a900473ffffffffffffffffffffffffffffffffffffffff169050816000806101000a81548173ffffffffffffffffffffffffffffffffffffffff021916908373ffffffffffffffffffffffffffffffffffffffff1602179055508173ffffffffffffffffffffffffffffffffffffffff168173ffffffffffffffffffffffffffffffffffffffff167f8be0079c531659141344cd1fd0a4f28419497f9722a3daafe3b4186f6b6457e060405160405180910390a35050565b6000604051905090565b600080fd5b600080fd5b600073ffffffffffffffffffffffffffffffffffffffff82169050919050565b6000620003a48262000377565b9050919050565b620003b68162000397565b8114620003c257600080fd5b50565b600081519050620003d681620003ab565b92915050565b6000819050919050565b620003f181620003dc565b8114620003fd57600080fd5b50565b6000815190506200041181620003e6565b92915050565b600080fd5b6000601f19601f8301169050919050565b7f4e487b7100000000000000000000000000000000000000000000000000000000600052604160045260246000fd5b62000467826200041c565b810181811067ffffffffffffffff821117156200048957620004886200042d565b5b80604052505050565b60006200049e62000363565b9050620004ac82826200045c565b919050565b600067ffffffffffffffff821115620004cf57620004ce6200042d565b5b602082029050602081019050919050565b600080fd5b600080fd5b600060408284031215620005035762000502620004e5565b5b6200050f604062000492565b90506000620005218482850162000400565b6000830152506020620005378482850162000400565b60208301525092915050565b60006200055a6200055484620004b1565b62000492565b9050808382526020820190506040840283018581111562000580576200057f620004e0565b5b835b81811015620005ad5780620005988882620004ea565b84526020840193505060408101905062000582565b5050509392505050565b600082601f830112620005cf57620005ce62000417565b5b8151620005e184826020860162000543565b91505092915050565b600080600080608085870312156200060757620006066200036d565b5b60006200061787828801620003c5565b94505060206200062a8782880162000400565b93505060406200063d8782880162000400565b925050606085015167ffffffffffffffff81111562000661576200066062000372565b5b6200066f87828801620005b7565b91505092959194509250565b600082825260208201905092915050565b7f496e76616c696420737461727454696d65000000000000000000000000000000600082015250565b6000620006c46011836200067b565b9150620006d1826200068c565b602082019050919050565b60006020820190508181036000830152620006f781620006b5565b9050919050565b7f4e487b7100000000000000000000000000000000000000000000000000000000600052603260045260246000fd5b7f4e487b7100000000000000000000000000000000000000000000000000000000600052601160045260246000fd5b60006200076982620003dc565b91506200077683620003dc565b92508282019050808211156200079157620007906200072d565b5b92915050565b6000620007a482620003dc565b9150620007b183620003dc565b9250828203905081811115620007cc57620007cb6200072d565b5b92915050565b7f496e76616c6964207363686564756c652074696d657300000000000000000000600082015250565b60006200080a6016836200067b565b91506200081782620007d2565b602082019050919050565b600060208201905081810360008301526200083d81620007fb565b9050919050565b60006200085182620003dc565b91507fffffffffffffffffffffffffffffffffffffffffffffffffffffffffffffffff82036200088657620008856200072d565b5b600182019050919050565b7f496e76616c6964207363686564756c6520706f7274696f6e7300000000000000600082015250565b6000620008c96019836200067b565b9150620008d68262000891565b602082019050919050565b60006020820190508181036000830152620008fc81620008ba565b9050919050565b61176d80620009136000396000f3fe608060405234801561001057600080fd5b506004361061012c5760003560e01c8063a5f1e282116100ad578063caad546e11610071578063caad546e1461030e578063ef5d9ae81461033e578063f2fde38b1461036e578063fc0c546a1461038a578063fd3d27b8146103a85761012c565b8063a5f1e2821461026a578063aa04ae781461029a578063b1e56f6b146102b8578063c6ed8990146102d4578063ca5c7b91146102f05761012c565b8063715018a6116100f4578063715018a6146101ea57806378e97925146101f45780637d086b29146102125780638da5cb5b1461023057806392c2bcb41461024e5761012c565b8063099d695f146101315780631c8ec299146101615780634e71d92d1461017f5780636fbfd4091461018957806370a08231146101ba575b600080fd5b61014b6004803603810190610146919061106c565b6103c6565b60405161015891906110b2565b60405180910390f35b6101696103de565b60405161017691906110b2565b60405180910390f35b6101876103e4565b005b6101a3600480360381019061019e91906110f9565b6105dc565b6040516101b1929190611126565b60405180910390f35b6101d460048036038101906101cf919061106c565b610610565b6040516101e191906110b2565b60405180910390f35b6101f261066c565b005b6101fc610680565b60405161020991906110b2565b60405180910390f35b61021a610686565b60405161022791906110b2565b60405180910390f35b61023861068c565b604051610245919061115e565b60405180910390f35b6102686004803603810190610263919061106c565b6106b5565b005b610284600480360381019061027f919061106c565b610940565b60405161029191906110b2565b60405180910390f35b6102a261099c565b6040516102af91906110b2565b60405180910390f35b6102d260048036038101906102cd9190611234565b6109a2565b005b6102ee60048036038101906102e991906110f9565b610b4f565b005b6102f8610c1e565b60405161030591906110b2565b60405180910390f35b6103286004803603810190610323919061106c565b610c3a565b60405161033591906110b2565b60405180910390f35b6103586004803603810190610353919061106c565b610c4c565b60405161036591906110b2565b60405180910390f35b6103886004803603810190610383919061106c565b610c64565b005b610392610ce7565b60405161039f919061115e565b60405180910390f35b6103b0610d0d565b6040516103bd91906110b2565b60405180910390f35b60056020528060005260406000206000915090505481565b60035481565b6003546002546103f491906112e4565b4211610435576040517f08c379a000000000000000000000000000000000000000000000000000000000815260040161042c90611375565b60405180910390fd5b6000600660003373ffffffffffffffffffffffffffffffffffffffff1673ffffffffffffffffffffffffffffffffffffffff1681526020019081526020016000205461048033610d1c565b61048a9190611395565b905080600660003373ffffffffffffffffffffffffffffffffffffffff1673ffffffffffffffffffffffffffffffffffffffff16815260200190815260200160002060008282546104db91906112e4565b92505081905550600160009054906101000a900473ffffffffffffffffffffffffffffffffffffffff1673ffffffffffffffffffffffffffffffffffffffff1663a9059cbb33836040518363ffffffff1660e01b815260040161053f9291906113c9565b6020604051808303816000875af115801561055e573d6000803e3d6000fd5b505050506040513d601f19601f82011682018060405250810190610582919061142a565b61058b57600080fd5b3373ffffffffffffffffffffffffffffffffffffffff167f47cee97cb7acd717b3c0aa1435d004cd5b3c8c57d70dbceb4e4458bbd60e39d4826040516105d191906110b2565b60405180910390a250565b600481815481106105ec57600080fd5b90600052602060002090600202016000915090508060000154908060010154905082565b6000600660008373ffffffffffffffffffffffffffffffffffffffff1673ffffffffffffffffffffffffffffffffffffffff1681526020019081526020016000205461065b83610d1c565b6106659190611395565b9050919050565b610674610d73565b61067e6000610df1565b565b60025481565b60075481565b60008060009054906101000a900473ffffffffffffffffffffffffffffffffffffffff16905090565b3373ffffffffffffffffffffffffffffffffffffffff168173ffffffffffffffffffffffffffffffffffffffff1603610723576040517f08c379a000000000000000000000000000000000000000000000000000000000815260040161071a906114c9565b60405180910390fd5b6000600560003373ffffffffffffffffffffffffffffffffffffffff1673ffffffffffffffffffffffffffffffffffffffff1681526020019081526020016000205490506000600660003373ffffffffffffffffffffffffffffffffffffffff1673ffffffffffffffffffffffffffffffffffffffff1681526020019081526020016000205490506000600560003373ffffffffffffffffffffffffffffffffffffffff1673ffffffffffffffffffffffffffffffffffffffff168152602001908152602001600020819055506000600660003373ffffffffffffffffffffffffffffffffffffffff1673ffffffffffffffffffffffffffffffffffffffff1681526020019081526020016000208190555081600560008573ffffffffffffffffffffffffffffffffffffffff1673ffffffffffffffffffffffffffffffffffffffff168152602001908152602001600020600082825461088491906112e4565b9250508190555080600660008573ffffffffffffffffffffffffffffffffffffffff1673ffffffffffffffffffffffffffffffffffffffff16815260200190815260200160002060008282546108da91906112e4565b925050819055508273ffffffffffffffffffffffffffffffffffffffff163373ffffffffffffffffffffffffffffffffffffffff167f68dd0f2c9ca18dce1e14e2e3f99123a6292bfde61698d10163545ee09a2bb7bb60405160405180910390a3505050565b600061094b82610d1c565b600560008473ffffffffffffffffffffffffffffffffffffffff1673ffffffffffffffffffffffffffffffffffffffff168152602001908152602001600020546109959190611395565b9050919050565b60085481565b6109aa610d73565b8181905084849050146109bc57600080fd5b6000805b83839050811015610b155760008484838181106109e0576109df6114e9565b5b90506020020135905060008787848181106109fe576109fd6114e9565b5b9050602002016020810190610a13919061106c565b9050600073ffffffffffffffffffffffffffffffffffffffff168173ffffffffffffffffffffffffffffffffffffffff1603610a50575050610b15565b8184610a5c91906112e4565b935081600560008373ffffffffffffffffffffffffffffffffffffffff1673ffffffffffffffffffffffffffffffffffffffff1681526020019081526020016000206000828254610aad91906112e4565b925050819055508073ffffffffffffffffffffffffffffffffffffffff167fda8220a878ff7a89474ccffdaa31ea1ed1ffbb0207d5051afccc4fbaf81f9bcd83604051610afa91906110b2565b60405180910390a2505080610b0e90611518565b90506109c0565b508060076000828254610b2891906112e4565b925050819055508060086000828254610b419190611395565b925050819055505050505050565b610b57610d73565b600160009054906101000a900473ffffffffffffffffffffffffffffffffffffffff1673ffffffffffffffffffffffffffffffffffffffff166323b872dd3330846040518463ffffffff1660e01b8152600401610bb693929190611560565b6020604051808303816000875af1158015610bd5573d6000803e3d6000fd5b505050506040513d601f19601f82011682018060405250810190610bf9919061142a565b610c0257600080fd5b8060086000828254610c1491906112e4565b9250508190555050565b6000610c28610eb5565b600754610c359190611395565b905090565b6000610c4582610d1c565b9050919050565b60066020528060005260406000206000915090505481565b610c6c610d73565b600073ffffffffffffffffffffffffffffffffffffffff168173ffffffffffffffffffffffffffffffffffffffff1603610cdb576040517f08c379a0000000000000000000000000000000000000000000000000000000008152600401610cd290611609565b60405180910390fd5b610ce481610df1565b50565b600160009054906101000a900473ffffffffffffffffffffffffffffffffffffffff1681565b6000610d17610eb5565b905090565b600080600560008473ffffffffffffffffffffffffffffffffffffffff1673ffffffffffffffffffffffffffffffffffffffff168152602001908152602001600020549050610d6b8142610ecd565b915050919050565b610d7b610ffc565b73ffffffffffffffffffffffffffffffffffffffff16610d9961068c565b73ffffffffffffffffffffffffffffffffffffffff1614610def576040517f08c379a0000000000000000000000000000000000000000000000000000000008152600401610de690611675565b60405180910390fd5b565b60008060009054906101000a900473ffffffffffffffffffffffffffffffffffffffff169050816000806101000a81548173ffffffffffffffffffffffffffffffffffffffff021916908373ffffffffffffffffffffffffffffffffffffffff1602179055508173ffffffffffffffffffffffffffffffffffffffff168173ffffffffffffffffffffffffffffffffffffffff167f8be0079c531659141344cd1fd0a4f28419497f9722a3daafe3b4186f6b6457e060405160405180910390a35050565b6000806007549050610ec78142610ecd565b91505090565b600080600254905080831015610ee7576000915050610ff6565b600080600480549050905060005b81811015610fee57600060048281548110610f1357610f126114e9565b5b9060005260206000209060020201600101549050600060048381548110610f3d57610f3c6114e9565b5b906000526020600020906002020160000154905080881015610fb15760648682610f679190611395565b610f719190611695565b82878a610f7e9190611395565b8b610f899190611695565b610f939190611695565b610f9d9190611706565b85610fa891906112e4565b94505050610fee565b6064828a610fbf9190611695565b610fc99190611706565b85610fd491906112e4565b945080955050508080610fe690611518565b915050610ef5565b508193505050505b92915050565b600033905090565b600080fd5b600080fd5b600073ffffffffffffffffffffffffffffffffffffffff82169050919050565b60006110398261100e565b9050919050565b6110498161102e565b811461105457600080fd5b50565b60008135905061106681611040565b92915050565b60006020828403121561108257611081611004565b5b600061109084828501611057565b91505092915050565b6000819050919050565b6110ac81611099565b82525050565b60006020820190506110c760008301846110a3565b92915050565b6110d681611099565b81146110e157600080fd5b50565b6000813590506110f3816110cd565b92915050565b60006020828403121561110f5761110e611004565b5b600061111d848285016110e4565b91505092915050565b600060408201905061113b60008301856110a3565b61114860208301846110a3565b9392505050565b6111588161102e565b82525050565b6000602082019050611173600083018461114f565b92915050565b600080fd5b600080fd5b600080fd5b60008083601f84011261119e5761119d611179565b5b8235905067ffffffffffffffff8111156111bb576111ba61117e565b5b6020830191508360208202830111156111d7576111d6611183565b5b9250929050565b60008083601f8401126111f4576111f3611179565b5b8235905067ffffffffffffffff8111156112115761121061117e565b5b60208301915083602082028301111561122d5761122c611183565b5b9250929050565b6000806000806040858703121561124e5761124d611004565b5b600085013567ffffffffffffffff81111561126c5761126b611009565b5b61127887828801611188565b9450945050602085013567ffffffffffffffff81111561129b5761129a611009565b5b6112a7878288016111de565b925092505092959194509250565b7f4e487b7100000000000000000000000000000000000000000000000000000000600052601160045260246000fd5b60006112ef82611099565b91506112fa83611099565b9250828201905080821115611312576113116112b5565b5b92915050565b600082825260208201905092915050565b7f436c61696d696e67206973206e6f7420617661696c61626c6520796574000000600082015250565b600061135f601d83611318565b915061136a82611329565b602082019050919050565b6000602082019050818103600083015261138e81611352565b9050919050565b60006113a082611099565b91506113ab83611099565b92508282039050818111156113c3576113c26112b5565b5b92915050565b60006040820190506113de600083018561114f565b6113eb60208301846110a3565b9392505050565b60008115159050919050565b611407816113f2565b811461141257600080fd5b50565b600081519050611424816113fe565b92915050565b6000602082840312156114405761143f611004565b5b600061144e84828501611415565b91505092915050565b7f6e6577526563697069656e74206d757374206e6f74206265206d73672e73656e60008201527f6465720000000000000000000000000000000000000000000000000000000000602082015250565b60006114b3602383611318565b91506114be82611457565b604082019050919050565b600060208201905081810360008301526114e2816114a6565b9050919050565b7f4e487b7100000000000000000000000000000000000000000000000000000000600052603260045260246000fd5b600061152382611099565b91507fffffffffffffffffffffffffffffffffffffffffffffffffffffffffffffffff8203611555576115546112b5565b5b600182019050919050565b6000606082019050611575600083018661114f565b611582602083018561114f565b61158f60408301846110a3565b949350505050565b7f4f776e61626c653a206e6577206f776e657220697320746865207a65726f206160008201527f6464726573730000000000000000000000000000000000000000000000000000602082015250565b60006115f3602683611318565b91506115fe82611597565b604082019050919050565b60006020820190508181036000830152611622816115e6565b9050919050565b7f4f776e61626c653a2063616c6c6572206973206e6f7420746865206f776e6572600082015250565b600061165f602083611318565b915061166a82611629565b602082019050919050565b6000602082019050818103600083015261168e81611652565b9050919050565b60006116a082611099565b91506116ab83611099565b92508282026116b981611099565b915082820484148315176116d0576116cf6112b5565b5b5092915050565b7f4e487b7100000000000000000000000000000000000000000000000000000000600052601260045260246000fd5b600061171182611099565b915061171c83611099565b92508261172c5761172b6116d7565b5b82820490509291505056fea26469706673582212202b7bacae2b8a53dd67bebd2cb6ff51497657c82d42de21dae74d9bdfbd4f70dd64736f6c63430008110033",
  "linkReferences": {},
  "deployedLinkReferences": {}
}