{
  "_format": "hh-sol-artifact-1",
  "contractName": "Life",
  "sourceName": "contracts/Life.sol",
  "abi": [
    {
      "inputs": [],
      "stateMutability": "nonpayable",
      "type": "constructor"
    },
    {
      "anonymous": false,
      "inputs": [
        {
          "indexed": true,
          "internalType": "address",
          "name": "owner",
          "type": "address"
        },
        {
          "indexed": true,
          "internalType": "address",
          "name": "spender",
          "type": "address"
        },
        {
          "indexed": false,
          "internalType": "uint256",
          "name": "value",
          "type": "uint256"
        }
      ],
      "name": "Approval",
      "type": "event"
    },
    {
      "anonymous": false,
      "inputs": [
        {
          "indexed": true,
          "internalType": "address",
          "name": "previousOwner",
          "type": "address"
        },
        {
          "indexed": true,
          "internalType": "address",
          "name": "newOwner",
          "type": "address"
        }
      ],
      "name": "OwnershipTransferred",
      "type": "event"
    },
    {
      "anonymous": false,
      "inputs": [
        {
          "indexed": false,
          "internalType": "address",
          "name": "account",
          "type": "address"
        }
      ],
      "name": "Paused",
      "type": "event"
    },
    {
      "anonymous": false,
      "inputs": [
        {
          "indexed": true,
          "internalType": "address",
          "name": "claimaint",
          "type": "address"
        },
        {
          "indexed": false,
          "internalType": "uint256",
          "name": "tokenId",
          "type": "uint256"
        }
      ],
      "name": "StakingClaimed",
      "type": "event"
    },
    {
      "anonymous": false,
      "inputs": [
        {
          "indexed": true,
          "internalType": "address",
          "name": "burnFrom",
          "type": "address"
        },
        {
          "indexed": false,
          "internalType": "uint256",
          "name": "amount",
          "type": "uint256"
        }
      ],
      "name": "TokensBurned",
      "type": "event"
    },
    {
      "anonymous": false,
      "inputs": [
        {
          "indexed": true,
          "internalType": "address",
          "name": "from",
          "type": "address"
        },
        {
          "indexed": true,
          "internalType": "address",
          "name": "to",
          "type": "address"
        },
        {
          "indexed": false,
          "internalType": "uint256",
          "name": "value",
          "type": "uint256"
        }
      ],
      "name": "Transfer",
      "type": "event"
    },
    {
      "anonymous": false,
      "inputs": [
        {
          "indexed": false,
          "internalType": "address",
          "name": "account",
          "type": "address"
        }
      ],
      "name": "Unpaused",
      "type": "event"
    },
    {
      "inputs": [],
      "name": "MAX_SUPPLY",
      "outputs": [
        {
          "internalType": "uint256",
          "name": "",
          "type": "uint256"
        }
      ],
      "stateMutability": "view",
      "type": "function"
    },
    {
      "inputs": [
        {
          "internalType": "address",
          "name": "owner",
          "type": "address"
        },
        {
          "internalType": "address",
          "name": "spender",
          "type": "address"
        }
      ],
      "name": "allowance",
      "outputs": [
        {
          "internalType": "uint256",
          "name": "",
          "type": "uint256"
        }
      ],
      "stateMutability": "view",
      "type": "function"
    },
    {
      "inputs": [
        {
          "internalType": "address",
          "name": "spender",
          "type": "address"
        },
        {
          "internalType": "uint256",
          "name": "amount",
          "type": "uint256"
        }
      ],
      "name": "approve",
      "outputs": [
        {
          "internalType": "bool",
          "name": "",
          "type": "bool"
        }
      ],
      "stateMutability": "nonpayable",
      "type": "function"
    },
    {
      "inputs": [
        {
          "internalType": "address",
          "name": "account",
          "type": "address"
        }
      ],
      "name": "balanceOf",
      "outputs": [
        {
          "internalType": "uint256",
          "name": "",
          "type": "uint256"
        }
      ],
      "stateMutability": "view",
      "type": "function"
    },
    {
      "inputs": [
        {
          "internalType": "uint256",
          "name": "amount",
          "type": "uint256"
        }
      ],
      "name": "burnLifeTokens",
      "outputs": [],
      "stateMutability": "nonpayable",
      "type": "function"
    },
    {
      "inputs": [
        {
          "internalType": "uint256",
          "name": "tokenId",
          "type": "uint256"
        }
      ],
      "name": "claimStakingRewards",
      "outputs": [],
      "stateMutability": "nonpayable",
      "type": "function"
    },
    {
      "inputs": [
        {
          "internalType": "uint256",
          "name": "tokenId",
          "type": "uint256"
        }
      ],
      "name": "claimableStakingRewards",
      "outputs": [
        {
          "internalType": "uint256",
          "name": "",
          "type": "uint256"
        }
      ],
      "stateMutability": "view",
      "type": "function"
    },
    {
      "inputs": [],
      "name": "decimals",
      "outputs": [
        {
          "internalType": "uint8",
          "name": "",
          "type": "uint8"
        }
      ],
      "stateMutability": "view",
      "type": "function"
    },
    {
      "inputs": [
        {
          "internalType": "address",
          "name": "spender",
          "type": "address"
        },
        {
          "internalType": "uint256",
          "name": "subtractedValue",
          "type": "uint256"
        }
      ],
      "name": "decreaseAllowance",
      "outputs": [
        {
          "internalType": "bool",
          "name": "",
          "type": "bool"
        }
      ],
      "stateMutability": "nonpayable",
      "type": "function"
    },
    {
      "inputs": [
        {
          "internalType": "address",
          "name": "spender",
          "type": "address"
        },
        {
          "internalType": "uint256",
          "name": "addedValue",
          "type": "uint256"
        }
      ],
      "name": "increaseAllowance",
      "outputs": [
        {
          "internalType": "bool",
          "name": "",
          "type": "bool"
        }
      ],
      "stateMutability": "nonpayable",
      "type": "function"
    },
    {
      "inputs": [
        {
          "internalType": "uint256",
          "name": "tokenId",
          "type": "uint256"
        }
      ],
      "name": "initStakingRewards",
      "outputs": [],
      "stateMutability": "nonpayable",
      "type": "function"
    },
    {
      "inputs": [],
      "name": "manageLifeInvestorsNft",
      "outputs": [
        {
          "internalType": "address",
          "name": "",
          "type": "address"
        }
      ],
      "stateMutability": "view",
      "type": "function"
    },
    {
      "inputs": [],
      "name": "manageLifeToken",
      "outputs": [
        {
          "internalType": "address",
          "name": "",
          "type": "address"
        }
      ],
      "stateMutability": "view",
      "type": "function"
    },
    {
      "inputs": [
        {
          "internalType": "uint256",
          "name": "_amount",
          "type": "uint256"
        }
      ],
      "name": "mint",
      "outputs": [],
      "stateMutability": "nonpayable",
      "type": "function"
    },
    {
      "inputs": [
        {
          "internalType": "address",
          "name": "investorAddress",
          "type": "address"
        },
        {
          "internalType": "uint256",
          "name": "_amount",
          "type": "uint256"
        }
      ],
      "name": "mintInvestorsRewards",
      "outputs": [],
      "stateMutability": "nonpayable",
      "type": "function"
    },
    {
      "inputs": [],
      "name": "name",
      "outputs": [
        {
          "internalType": "string",
          "name": "",
          "type": "string"
        }
      ],
      "stateMutability": "view",
      "type": "function"
    },
    {
      "inputs": [],
      "name": "owner",
      "outputs": [
        {
          "internalType": "address",
          "name": "",
          "type": "address"
        }
      ],
      "stateMutability": "view",
      "type": "function"
    },
    {
      "inputs": [],
      "name": "pause",
      "outputs": [],
      "stateMutability": "nonpayable",
      "type": "function"
    },
    {
      "inputs": [],
      "name": "paused",
      "outputs": [
        {
          "internalType": "bool",
          "name": "",
          "type": "bool"
        }
      ],
      "stateMutability": "view",
      "type": "function"
    },
    {
      "inputs": [],
      "name": "renounceOwnership",
      "outputs": [],
      "stateMutability": "nonpayable",
      "type": "function"
    },
    {
      "inputs": [
        {
          "internalType": "address",
          "name": "manageLifeToken_",
          "type": "address"
        }
      ],
      "name": "setManageLifeToken",
      "outputs": [],
      "stateMutability": "nonpayable",
      "type": "function"
    },
    {
      "inputs": [
        {
          "internalType": "address",
          "name": "investorsNft_",
          "type": "address"
        }
      ],
      "name": "setNftiToken",
      "outputs": [],
      "stateMutability": "nonpayable",
      "type": "function"
    },
    {
      "inputs": [
        {
          "internalType": "uint256",
          "name": "",
          "type": "uint256"
        }
      ],
      "name": "startOfStakingRewards",
      "outputs": [
        {
          "internalType": "uint64",
          "name": "",
          "type": "uint64"
        }
      ],
      "stateMutability": "view",
      "type": "function"
    },
    {
      "inputs": [],
      "name": "symbol",
      "outputs": [
        {
          "internalType": "string",
          "name": "",
          "type": "string"
        }
      ],
      "stateMutability": "view",
      "type": "function"
    },
    {
      "inputs": [],
      "name": "totalSupply",
      "outputs": [
        {
          "internalType": "uint256",
          "name": "",
          "type": "uint256"
        }
      ],
      "stateMutability": "view",
      "type": "function"
    },
    {
      "inputs": [
        {
          "internalType": "address",
          "name": "to",
          "type": "address"
        },
        {
          "internalType": "uint256",
          "name": "amount",
          "type": "uint256"
        }
      ],
      "name": "transfer",
      "outputs": [
        {
          "internalType": "bool",
          "name": "",
          "type": "bool"
        }
      ],
      "stateMutability": "nonpayable",
      "type": "function"
    },
    {
      "inputs": [
        {
          "internalType": "address",
          "name": "from",
          "type": "address"
        },
        {
          "internalType": "address",
          "name": "to",
          "type": "address"
        },
        {
          "internalType": "uint256",
          "name": "amount",
          "type": "uint256"
        }
      ],
      "name": "transferFrom",
      "outputs": [
        {
          "internalType": "bool",
          "name": "",
          "type": "bool"
        }
      ],
      "stateMutability": "nonpayable",
      "type": "function"
    },
    {
      "inputs": [
        {
          "internalType": "address",
          "name": "newOwner",
          "type": "address"
        }
      ],
      "name": "transferOwnership",
      "outputs": [],
      "stateMutability": "nonpayable",
      "type": "function"
    },
    {
      "inputs": [],
      "name": "unpause",
      "outputs": [],
      "stateMutability": "nonpayable",
      "type": "function"
    },
    {
      "inputs": [
        {
          "internalType": "uint256",
          "name": "tokenId",
          "type": "uint256"
        },
        {
          "internalType": "uint64",
          "name": "newStartDate",
          "type": "uint64"
        }
      ],
      "name": "updateStartOfStaking",
      "outputs": [],
      "stateMutability": "nonpayable",
      "type": "function"
    }
  ],
  "bytecode": "0x60806040523480156200001157600080fd5b506040518060400160405280601081526020017f4d616e6167654c69666520546f6b656e000000000000000000000000000000008152506040518060400160405280600581526020017f4d4c49464500000000000000000000000000000000000000000000000000000081525081600390816200008f9190620005cd565b508060049081620000a19190620005cd565b505050620000c4620000b86200010360201b60201c565b6200010b60201b60201c565b6000600560146101000a81548160ff021916908315150217905550620000fd336b06765c793fa10079d0000000620001d160201b60201c565b620007cf565b600033905090565b6000600560009054906101000a900473ffffffffffffffffffffffffffffffffffffffff16905081600560006101000a81548173ffffffffffffffffffffffffffffffffffffffff021916908373ffffffffffffffffffffffffffffffffffffffff1602179055508173ffffffffffffffffffffffffffffffffffffffff168173ffffffffffffffffffffffffffffffffffffffff167f8be0079c531659141344cd1fd0a4f28419497f9722a3daafe3b4186f6b6457e060405160405180910390a35050565b600073ffffffffffffffffffffffffffffffffffffffff168273ffffffffffffffffffffffffffffffffffffffff160362000243576040517f08c379a00000000000000000000000000000000000000000000000000000000081526004016200023a9062000715565b60405180910390fd5b62000257600083836200034960201b60201c565b80600260008282546200026b919062000766565b92505081905550806000808473ffffffffffffffffffffffffffffffffffffffff1673ffffffffffffffffffffffffffffffffffffffff1681526020019081526020016000206000828254620002c2919062000766565b925050819055508173ffffffffffffffffffffffffffffffffffffffff16600073ffffffffffffffffffffffffffffffffffffffff167fddf252ad1be2c89b69c2b068fc378daa952ba7f163c4a11628f55a4df523b3ef83604051620003299190620007b2565b60405180910390a362000345600083836200034e60201b60201c565b5050565b505050565b505050565b600081519050919050565b7f4e487b7100000000000000000000000000000000000000000000000000000000600052604160045260246000fd5b7f4e487b7100000000000000000000000000000000000000000000000000000000600052602260045260246000fd5b60006002820490506001821680620003d557607f821691505b602082108103620003eb57620003ea6200038d565b5b50919050565b60008190508160005260206000209050919050565b60006020601f8301049050919050565b600082821b905092915050565b600060088302620004557fffffffffffffffffffffffffffffffffffffffffffffffffffffffffffffffff8262000416565b62000461868362000416565b95508019841693508086168417925050509392505050565b6000819050919050565b6000819050919050565b6000620004ae620004a8620004a28462000479565b62000483565b62000479565b9050919050565b6000819050919050565b620004ca836200048d565b620004e2620004d982620004b5565b84845462000423565b825550505050565b600090565b620004f9620004ea565b62000506818484620004bf565b505050565b5b818110156200052e5762000522600082620004ef565b6001810190506200050c565b5050565b601f8211156200057d576200054781620003f1565b620005528462000406565b8101602085101562000562578190505b6200057a620005718562000406565b8301826200050b565b50505b505050565b600082821c905092915050565b6000620005a26000198460080262000582565b1980831691505092915050565b6000620005bd83836200058f565b9150826002028217905092915050565b620005d88262000353565b67ffffffffffffffff811115620005f457620005f36200035e565b5b620006008254620003bc565b6200060d82828562000532565b600060209050601f83116001811462000645576000841562000630578287015190505b6200063c8582620005af565b865550620006ac565b601f1984166200065586620003f1565b60005b828110156200067f5784890151825560018201915060208501945060208101905062000658565b868310156200069f57848901516200069b601f8916826200058f565b8355505b6001600288020188555050505b505050505050565b600082825260208201905092915050565b7f45524332303a206d696e7420746f20746865207a65726f206164647265737300600082015250565b6000620006fd601f83620006b4565b91506200070a82620006c5565b602082019050919050565b600060208201905081810360008301526200073081620006ee565b9050919050565b7f4e487b7100000000000000000000000000000000000000000000000000000000600052601160045260246000fd5b6000620007738262000479565b9150620007808362000479565b92508282019050808211156200079b576200079a62000737565b5b92915050565b620007ac8162000479565b82525050565b6000602082019050620007c96000830184620007a1565b92915050565b612fa980620007df6000396000f3fe608060405234801561001057600080fd5b50600436106101da5760003560e01c806370a0823111610104578063a0712d68116100a2578063b2256ba011610071578063b2256ba01461050b578063dd62ed3e1461053b578063e64de7541461056b578063f2fde38b1461059b576101da565b8063a0712d6814610473578063a457c2d71461048f578063a85a0393146104bf578063a9059cbb146104db576101da565b80638456cb59116100de5780638456cb59146104115780638da5cb5b1461041b5780638fad26271461043957806395d89b4114610455576101da565b806370a08231146103bb578063715018a6146103eb57806383487498146103f5576101da565b806323b872dd1161017c578063395093511161014b57806339509351146103455780633f4ba83a146103755780634f162e5a1461037f5780635c975abb1461039d576101da565b806323b872dd146102bb57806330e82a58146102eb578063313ce5671461030957806332cb6b0c14610327576101da565b8063125d3990116101b8578063125d3990146102495780631350746d1461026557806318160ddd146102815780631f379cc51461029f576101da565b8063058d5b18146101df57806306fdde03146101fb578063095ea7b314610219575b600080fd5b6101f960048036038101906101f49190611fe6565b6105b7565b005b61020361071d565b60405161021091906120a3565b60405180910390f35b610233600480360381019061022e9190612123565b6107af565b604051610240919061217e565b60405180910390f35b610263600480360381019061025e9190612199565b6107d2565b005b61027f600480360381019061027a9190612199565b610826565b005b61028961087a565b60405161029691906121d5565b60405180910390f35b6102b960048036038101906102b49190611fe6565b610884565b005b6102d560048036038101906102d091906121f0565b6108df565b6040516102e2919061217e565b60405180910390f35b6102f361090e565b6040516103009190612252565b60405180910390f35b610311610938565b60405161031e9190612289565b60405180910390f35b61032f610941565b60405161033c91906121d5565b60405180910390f35b61035f600480360381019061035a9190612123565b610951565b60405161036c919061217e565b60405180910390f35b61037d610988565b005b6103876109a2565b6040516103949190612252565b60405180910390f35b6103a56109cc565b6040516103b2919061217e565b60405180910390f35b6103d560048036038101906103d09190612199565b6109e3565b6040516103e291906121d5565b60405180910390f35b6103f3610a2b565b005b61040f600480360381019061040a9190612123565b610a3f565b005b610419610ab0565b005b610423610aca565b6040516104309190612252565b60405180910390f35b610453600480360381019061044e9190611fe6565b610af4565b005b61045d610fda565b60405161046a91906120a3565b60405180910390f35b61048d60048036038101906104889190611fe6565b61106c565b005b6104a960048036038101906104a49190612123565b6110e4565b6040516104b6919061217e565b60405180910390f35b6104d960048036038101906104d491906122e4565b61115b565b005b6104f560048036038101906104f09190612123565b611266565b604051610502919061217e565b60405180910390f35b61052560048036038101906105209190611fe6565b611289565b60405161053291906121d5565b60405180910390f35b61055560048036038101906105509190612324565b6113c2565b60405161056291906121d5565b60405180910390f35b61058560048036038101906105809190611fe6565b611449565b6040516105929190612373565b60405180910390f35b6105b560048036038101906105b09190612199565b611470565b005b6105bf6114f3565b600073ffffffffffffffffffffffffffffffffffffffff16600760009054906101000a900473ffffffffffffffffffffffffffffffffffffffff1673ffffffffffffffffffffffffffffffffffffffff1603610650576040517f08c379a0000000000000000000000000000000000000000000000000000000008152600401610647906123da565b60405180910390fd5b600760009054906101000a900473ffffffffffffffffffffffffffffffffffffffff1673ffffffffffffffffffffffffffffffffffffffff163373ffffffffffffffffffffffffffffffffffffffff16146106e0576040517f08c379a00000000000000000000000000000000000000000000000000000000081526004016106d790612446565b60405180910390fd5b426006600083815260200190815260200160002060006101000a81548167ffffffffffffffff021916908367ffffffffffffffff16021790555050565b60606003805461072c90612495565b80601f016020809104026020016040519081016040528092919081815260200182805461075890612495565b80156107a55780601f1061077a576101008083540402835291602001916107a5565b820191906000526020600020905b81548152906001019060200180831161078857829003601f168201915b5050505050905090565b6000806107ba61153d565b90506107c7818585611545565b600191505092915050565b6107da61170e565b6107e26114f3565b80600760006101000a81548173ffffffffffffffffffffffffffffffffffffffff021916908373ffffffffffffffffffffffffffffffffffffffff16021790555050565b61082e61170e565b6108366114f3565b80600860006101000a81548173ffffffffffffffffffffffffffffffffffffffff021916908373ffffffffffffffffffffffffffffffffffffffff16021790555050565b6000600254905090565b61088e338261178c565b3373ffffffffffffffffffffffffffffffffffffffff167ffd38818f5291bf0bb3a2a48aadc06ba8757865d1dabd804585338aab3009dcb6826040516108d491906121d5565b60405180910390a250565b6000806108ea61153d565b90506108f7858285611962565b6109028585856119ee565b60019150509392505050565b6000600760009054906101000a900473ffffffffffffffffffffffffffffffffffffffff16905090565b60006012905090565b6b1027e72f1f1281308800000081565b60008061095c61153d565b905061097d81858561096e85896113c2565b61097891906124f5565b611545565b600191505092915050565b610990611c6d565b61099861170e565b6109a0611cb6565b565b6000600860009054906101000a900473ffffffffffffffffffffffffffffffffffffffff16905090565b6000600560149054906101000a900460ff16905090565b60008060008373ffffffffffffffffffffffffffffffffffffffff1673ffffffffffffffffffffffffffffffffffffffff168152602001908152602001600020549050919050565b610a3361170e565b610a3d6000611d19565b565b806b1027e72f1f1281308800000081610a5661087a565b610a6091906124f5565b1115610aa1576040517f08c379a0000000000000000000000000000000000000000000000000000000008152600401610a9890612575565b60405180910390fd5b610aab8383611ddf565b505050565b610ab86114f3565b610ac061170e565b610ac8611f3e565b565b6000600560009054906101000a900473ffffffffffffffffffffffffffffffffffffffff16905090565b610afc6114f3565b6000610b0782611289565b9050600073ffffffffffffffffffffffffffffffffffffffff16600760009054906101000a900473ffffffffffffffffffffffffffffffffffffffff1673ffffffffffffffffffffffffffffffffffffffff1603610b9a576040517f08c379a0000000000000000000000000000000000000000000000000000000008152600401610b91906123da565b60405180910390fd5b610ba2610aca565b73ffffffffffffffffffffffffffffffffffffffff16600760009054906101000a900473ffffffffffffffffffffffffffffffffffffffff1673ffffffffffffffffffffffffffffffffffffffff16636352211e846040518263ffffffff1660e01b8152600401610c1391906121d5565b602060405180830381865afa158015610c30573d6000803e3d6000fd5b505050506040513d601f19601f82011682018060405250810190610c5491906125aa565b73ffffffffffffffffffffffffffffffffffffffff1603610caa576040517f08c379a0000000000000000000000000000000000000000000000000000000008152600401610ca190612623565b60405180910390fd5b610cb2610aca565b73ffffffffffffffffffffffffffffffffffffffff163373ffffffffffffffffffffffffffffffffffffffff161480610db15750600760009054906101000a900473ffffffffffffffffffffffffffffffffffffffff1673ffffffffffffffffffffffffffffffffffffffff16636352211e836040518263ffffffff1660e01b8152600401610d4191906121d5565b602060405180830381865afa158015610d5e573d6000803e3d6000fd5b505050506040513d601f19601f82011682018060405250810190610d8291906125aa565b73ffffffffffffffffffffffffffffffffffffffff163373ffffffffffffffffffffffffffffffffffffffff16145b80610e095750600760009054906101000a900473ffffffffffffffffffffffffffffffffffffffff1673ffffffffffffffffffffffffffffffffffffffff163373ffffffffffffffffffffffffffffffffffffffff16145b610e48576040517f08c379a0000000000000000000000000000000000000000000000000000000008152600401610e3f9061268f565b60405180910390fd5b6b1027e72f1f1281308800000081610e5e61087a565b610e6891906124f5565b1115610ea9576040517f08c379a0000000000000000000000000000000000000000000000000000000008152600401610ea090612575565b60405180910390fd5b610f4e600760009054906101000a900473ffffffffffffffffffffffffffffffffffffffff1673ffffffffffffffffffffffffffffffffffffffff16636352211e846040518263ffffffff1660e01b8152600401610f0791906121d5565b602060405180830381865afa158015610f24573d6000803e3d6000fd5b505050506040513d601f19601f82011682018060405250810190610f4891906125aa565b82611ddf565b426006600084815260200190815260200160002060006101000a81548167ffffffffffffffff021916908367ffffffffffffffff1602179055503373ffffffffffffffffffffffffffffffffffffffff167fed0efac57f2275dc27a26c14eb538dfadcfb7b3a0cc0eae190d2a782e1ae664e82604051610fce91906121d5565b60405180910390a25050565b606060048054610fe990612495565b80601f016020809104026020016040519081016040528092919081815260200182805461101590612495565b80156110625780601f1061103757610100808354040283529160200191611062565b820191906000526020600020905b81548152906001019060200180831161104557829003601f168201915b5050505050905090565b61107461170e565b806b1027e72f1f128130880000008161108b61087a565b61109591906124f5565b11156110d6576040517f08c379a00000000000000000000000000000000000000000000000000000000081526004016110cd90612575565b60405180910390fd5b6110e03383611ddf565b5050565b6000806110ef61153d565b905060006110fd82866113c2565b905083811015611142576040517f08c379a000000000000000000000000000000000000000000000000000000000815260040161113990612721565b60405180910390fd5b61114f8286868403611545565b60019250505092915050565b611163610aca565b73ffffffffffffffffffffffffffffffffffffffff163373ffffffffffffffffffffffffffffffffffffffff1614806111e95750600760009054906101000a900473ffffffffffffffffffffffffffffffffffffffff1673ffffffffffffffffffffffffffffffffffffffff163373ffffffffffffffffffffffffffffffffffffffff16145b611228576040517f08c379a000000000000000000000000000000000000000000000000000000000815260040161121f906127b3565b60405180910390fd5b806006600084815260200190815260200160002060006101000a81548167ffffffffffffffff021916908367ffffffffffffffff1602179055505050565b60008061127161153d565b905061127e8185856119ee565b600191505092915050565b60006006600083815260200190815260200160002060009054906101000a900467ffffffffffffffff1667ffffffffffffffff164267ffffffffffffffff1610156112d757600090506113bd565b600760009054906101000a900473ffffffffffffffffffffffffffffffffffffffff1673ffffffffffffffffffffffffffffffffffffffff16631b61f17e836040518263ffffffff1660e01b815260040161133291906121d5565b602060405180830381865afa15801561134f573d6000803e3d6000fd5b505050506040513d601f19601f8201168201806040525081019061137391906127e8565b6006600084815260200190815260200160002060009054906101000a900467ffffffffffffffff16426113a69190612815565b67ffffffffffffffff166113ba9190612851565b90505b919050565b6000600160008473ffffffffffffffffffffffffffffffffffffffff1673ffffffffffffffffffffffffffffffffffffffff16815260200190815260200160002060008373ffffffffffffffffffffffffffffffffffffffff1673ffffffffffffffffffffffffffffffffffffffff16815260200190815260200160002054905092915050565b60066020528060005260406000206000915054906101000a900467ffffffffffffffff1681565b61147861170e565b600073ffffffffffffffffffffffffffffffffffffffff168173ffffffffffffffffffffffffffffffffffffffff16036114e7576040517f08c379a00000000000000000000000000000000000000000000000000000000081526004016114de90612905565b60405180910390fd5b6114f081611d19565b50565b6114fb6109cc565b1561153b576040517f08c379a000000000000000000000000000000000000000000000000000000000815260040161153290612971565b60405180910390fd5b565b600033905090565b600073ffffffffffffffffffffffffffffffffffffffff168373ffffffffffffffffffffffffffffffffffffffff16036115b4576040517f08c379a00000000000000000000000000000000000000000000000000000000081526004016115ab90612a03565b60405180910390fd5b600073ffffffffffffffffffffffffffffffffffffffff168273ffffffffffffffffffffffffffffffffffffffff1603611623576040517f08c379a000000000000000000000000000000000000000000000000000000000815260040161161a90612a95565b60405180910390fd5b80600160008573ffffffffffffffffffffffffffffffffffffffff1673ffffffffffffffffffffffffffffffffffffffff16815260200190815260200160002060008473ffffffffffffffffffffffffffffffffffffffff1673ffffffffffffffffffffffffffffffffffffffff168152602001908152602001600020819055508173ffffffffffffffffffffffffffffffffffffffff168373ffffffffffffffffffffffffffffffffffffffff167f8c5be1e5ebec7d5bd14f71427d1e84f3dd0314c0f7b2291e5b200ac8c7c3b9258360405161170191906121d5565b60405180910390a3505050565b61171661153d565b73ffffffffffffffffffffffffffffffffffffffff16611734610aca565b73ffffffffffffffffffffffffffffffffffffffff161461178a576040517f08c379a000000000000000000000000000000000000000000000000000000000815260040161178190612b01565b60405180910390fd5b565b600073ffffffffffffffffffffffffffffffffffffffff168273ffffffffffffffffffffffffffffffffffffffff16036117fb576040517f08c379a00000000000000000000000000000000000000000000000000000000081526004016117f290612b93565b60405180910390fd5b61180782600083611fa1565b60008060008473ffffffffffffffffffffffffffffffffffffffff1673ffffffffffffffffffffffffffffffffffffffff1681526020019081526020016000205490508181101561188d576040517f08c379a000000000000000000000000000000000000000000000000000000000815260040161188490612c25565b60405180910390fd5b8181036000808573ffffffffffffffffffffffffffffffffffffffff1673ffffffffffffffffffffffffffffffffffffffff1681526020019081526020016000208190555081600260008282546118e49190612c45565b92505081905550600073ffffffffffffffffffffffffffffffffffffffff168373ffffffffffffffffffffffffffffffffffffffff167fddf252ad1be2c89b69c2b068fc378daa952ba7f163c4a11628f55a4df523b3ef8460405161194991906121d5565b60405180910390a361195d83600084611fa6565b505050565b600061196e84846113c2565b90507fffffffffffffffffffffffffffffffffffffffffffffffffffffffffffffffff81146119e857818110156119da576040517f08c379a00000000000000000000000000000000000000000000000000000000081526004016119d190612cc5565b60405180910390fd5b6119e78484848403611545565b5b50505050565b600073ffffffffffffffffffffffffffffffffffffffff168373ffffffffffffffffffffffffffffffffffffffff1603611a5d576040517f08c379a0000000000000000000000000000000000000000000000000000000008152600401611a5490612d57565b60405180910390fd5b600073ffffffffffffffffffffffffffffffffffffffff168273ffffffffffffffffffffffffffffffffffffffff1603611acc576040517f08c379a0000000000000000000000000000000000000000000000000000000008152600401611ac390612de9565b60405180910390fd5b611ad7838383611fa1565b60008060008573ffffffffffffffffffffffffffffffffffffffff1673ffffffffffffffffffffffffffffffffffffffff16815260200190815260200160002054905081811015611b5d576040517f08c379a0000000000000000000000000000000000000000000000000000000008152600401611b5490612e7b565b60405180910390fd5b8181036000808673ffffffffffffffffffffffffffffffffffffffff1673ffffffffffffffffffffffffffffffffffffffff16815260200190815260200160002081905550816000808573ffffffffffffffffffffffffffffffffffffffff1673ffffffffffffffffffffffffffffffffffffffff1681526020019081526020016000206000828254611bf091906124f5565b925050819055508273ffffffffffffffffffffffffffffffffffffffff168473ffffffffffffffffffffffffffffffffffffffff167fddf252ad1be2c89b69c2b068fc378daa952ba7f163c4a11628f55a4df523b3ef84604051611c5491906121d5565b60405180910390a3611c67848484611fa6565b50505050565b611c756109cc565b611cb4576040517f08c379a0000000000000000000000000000000000000000000000000000000008152600401611cab90612ee7565b60405180910390fd5b565b611cbe611c6d565b6000600560146101000a81548160ff0219169083151502179055507f5db9ee0a495bf2e6ff9c91a7834c1ba4fdd244a5e8aa4e537bd38aeae4b073aa611d0261153d565b604051611d0f9190612252565b60405180910390a1565b6000600560009054906101000a900473ffffffffffffffffffffffffffffffffffffffff16905081600560006101000a81548173ffffffffffffffffffffffffffffffffffffffff021916908373ffffffffffffffffffffffffffffffffffffffff1602179055508173ffffffffffffffffffffffffffffffffffffffff168173ffffffffffffffffffffffffffffffffffffffff167f8be0079c531659141344cd1fd0a4f28419497f9722a3daafe3b4186f6b6457e060405160405180910390a35050565b600073ffffffffffffffffffffffffffffffffffffffff168273ffffffffffffffffffffffffffffffffffffffff1603611e4e576040517f08c379a0000000000000000000000000000000000000000000000000000000008152600401611e4590612f53565b60405180910390fd5b611e5a60008383611fa1565b8060026000828254611e6c91906124f5565b92505081905550806000808473ffffffffffffffffffffffffffffffffffffffff1673ffffffffffffffffffffffffffffffffffffffff1681526020019081526020016000206000828254611ec191906124f5565b925050819055508173ffffffffffffffffffffffffffffffffffffffff16600073ffffffffffffffffffffffffffffffffffffffff167fddf252ad1be2c89b69c2b068fc378daa952ba7f163c4a11628f55a4df523b3ef83604051611f2691906121d5565b60405180910390a3611f3a60008383611fa6565b5050565b611f466114f3565b6001600560146101000a81548160ff0219169083151502179055507f62e78cea01bee320cd4e420270b5ea74000d11b0c9f74754ebdbfc544b05a258611f8a61153d565b604051611f979190612252565b60405180910390a1565b505050565b505050565b600080fd5b6000819050919050565b611fc381611fb0565b8114611fce57600080fd5b50565b600081359050611fe081611fba565b92915050565b600060208284031215611ffc57611ffb611fab565b5b600061200a84828501611fd1565b91505092915050565b600081519050919050565b600082825260208201905092915050565b60005b8381101561204d578082015181840152602081019050612032565b60008484015250505050565b6000601f19601f8301169050919050565b600061207582612013565b61207f818561201e565b935061208f81856020860161202f565b61209881612059565b840191505092915050565b600060208201905081810360008301526120bd818461206a565b905092915050565b600073ffffffffffffffffffffffffffffffffffffffff82169050919050565b60006120f0826120c5565b9050919050565b612100816120e5565b811461210b57600080fd5b50565b60008135905061211d816120f7565b92915050565b6000806040838503121561213a57612139611fab565b5b60006121488582860161210e565b925050602061215985828601611fd1565b9150509250929050565b60008115159050919050565b61217881612163565b82525050565b6000602082019050612193600083018461216f565b92915050565b6000602082840312156121af576121ae611fab565b5b60006121bd8482850161210e565b91505092915050565b6121cf81611fb0565b82525050565b60006020820190506121ea60008301846121c6565b92915050565b60008060006060848603121561220957612208611fab565b5b60006122178682870161210e565b93505060206122288682870161210e565b925050604061223986828701611fd1565b9150509250925092565b61224c816120e5565b82525050565b60006020820190506122676000830184612243565b92915050565b600060ff82169050919050565b6122838161226d565b82525050565b600060208201905061229e600083018461227a565b92915050565b600067ffffffffffffffff82169050919050565b6122c1816122a4565b81146122cc57600080fd5b50565b6000813590506122de816122b8565b92915050565b600080604083850312156122fb576122fa611fab565b5b600061230985828601611fd1565b925050602061231a858286016122cf565b9150509250929050565b6000806040838503121561233b5761233a611fab565b5b60006123498582860161210e565b925050602061235a8582860161210e565b9150509250929050565b61236d816122a4565b82525050565b60006020820190506123886000830184612364565b92915050565b7f4d616e6167654c69666520746f6b656e206973206e6f74207365740000000000600082015250565b60006123c4601b8361201e565b91506123cf8261238e565b602082019050919050565b600060208201905081810360008301526123f3816123b7565b9050919050565b7f4f6e6c79204d616e6167654c69666520746f6b656e0000000000000000000000600082015250565b600061243060158361201e565b915061243b826123fa565b602082019050919050565b6000602082019050818103600083015261245f81612423565b9050919050565b7f4e487b7100000000000000000000000000000000000000000000000000000000600052602260045260246000fd5b600060028204905060018216806124ad57607f821691505b6020821081036124c0576124bf612466565b5b50919050565b7f4e487b7100000000000000000000000000000000000000000000000000000000600052601160045260246000fd5b600061250082611fb0565b915061250b83611fb0565b9250828201905080821115612523576125226124c6565b5b92915050565b7f244c49464520737570706c79206973206d617865640000000000000000000000600082015250565b600061255f60158361201e565b915061256a82612529565b602082019050919050565b6000602082019050818103600083015261258e81612552565b9050919050565b6000815190506125a4816120f7565b92915050565b6000602082840312156125c0576125bf611fab565b5b60006125ce84828501612595565b91505092915050565b7f506c6174666f726d2077616c6c65742063616e6e6f7420636c61696d00000000600082015250565b600061260d601c8361201e565b9150612618826125d7565b602082019050919050565b6000602082019050818103600083015261263c81612600565b9050919050565b7f556e617574686f72697a65642e00000000000000000000000000000000000000600082015250565b6000612679600d8361201e565b915061268482612643565b602082019050919050565b600060208201905081810360008301526126a88161266c565b9050919050565b7f45524332303a2064656372656173656420616c6c6f77616e63652062656c6f7760008201527f207a65726f000000000000000000000000000000000000000000000000000000602082015250565b600061270b60258361201e565b9150612716826126af565b604082019050919050565b6000602082019050818103600083015261273a816126fe565b9050919050565b7f4f6e792061646d696e732063616e20657865637574652074686973206f70657260008201527f6174696f6e000000000000000000000000000000000000000000000000000000602082015250565b600061279d60258361201e565b91506127a882612741565b604082019050919050565b600060208201905081810360008301526127cc81612790565b9050919050565b6000815190506127e281611fba565b92915050565b6000602082840312156127fe576127fd611fab565b5b600061280c848285016127d3565b91505092915050565b6000612820826122a4565b915061282b836122a4565b9250828203905067ffffffffffffffff81111561284b5761284a6124c6565b5b92915050565b600061285c82611fb0565b915061286783611fb0565b925082820261287581611fb0565b9150828204841483151761288c5761288b6124c6565b5b5092915050565b7f4f776e61626c653a206e6577206f776e657220697320746865207a65726f206160008201527f6464726573730000000000000000000000000000000000000000000000000000602082015250565b60006128ef60268361201e565b91506128fa82612893565b604082019050919050565b6000602082019050818103600083015261291e816128e2565b9050919050565b7f5061757361626c653a2070617573656400000000000000000000000000000000600082015250565b600061295b60108361201e565b915061296682612925565b602082019050919050565b6000602082019050818103600083015261298a8161294e565b9050919050565b7f45524332303a20617070726f76652066726f6d20746865207a65726f2061646460008201527f7265737300000000000000000000000000000000000000000000000000000000602082015250565b60006129ed60248361201e565b91506129f882612991565b604082019050919050565b60006020820190508181036000830152612a1c816129e0565b9050919050565b7f45524332303a20617070726f766520746f20746865207a65726f20616464726560008201527f7373000000000000000000000000000000000000000000000000000000000000602082015250565b6000612a7f60228361201e565b9150612a8a82612a23565b604082019050919050565b60006020820190508181036000830152612aae81612a72565b9050919050565b7f4f776e61626c653a2063616c6c6572206973206e6f7420746865206f776e6572600082015250565b6000612aeb60208361201e565b9150612af682612ab5565b602082019050919050565b60006020820190508181036000830152612b1a81612ade565b9050919050565b7f45524332303a206275726e2066726f6d20746865207a65726f2061646472657360008201527f7300000000000000000000000000000000000000000000000000000000000000602082015250565b6000612b7d60218361201e565b9150612b8882612b21565b604082019050919050565b60006020820190508181036000830152612bac81612b70565b9050919050565b7f45524332303a206275726e20616d6f756e7420657863656564732062616c616e60008201527f6365000000000000000000000000000000000000000000000000000000000000602082015250565b6000612c0f60228361201e565b9150612c1a82612bb3565b604082019050919050565b60006020820190508181036000830152612c3e81612c02565b9050919050565b6000612c5082611fb0565b9150612c5b83611fb0565b9250828203905081811115612c7357612c726124c6565b5b92915050565b7f45524332303a20696e73756666696369656e7420616c6c6f77616e6365000000600082015250565b6000612caf601d8361201e565b9150612cba82612c79565b602082019050919050565b60006020820190508181036000830152612cde81612ca2565b9050919050565b7f45524332303a207472616e736665722066726f6d20746865207a65726f20616460008201527f6472657373000000000000000000000000000000000000000000000000000000602082015250565b6000612d4160258361201e565b9150612d4c82612ce5565b604082019050919050565b60006020820190508181036000830152612d7081612d34565b9050919050565b7f45524332303a207472616e7366657220746f20746865207a65726f206164647260008201527f6573730000000000000000000000000000000000000000000000000000000000602082015250565b6000612dd360238361201e565b9150612dde82612d77565b604082019050919050565b60006020820190508181036000830152612e0281612dc6565b9050919050565b7f45524332303a207472616e7366657220616d6f756e742065786365656473206260008201527f616c616e63650000000000000000000000000000000000000000000000000000602082015250565b6000612e6560268361201e565b9150612e7082612e09565b604082019050919050565b60006020820190508181036000830152612e9481612e58565b9050919050565b7f5061757361626c653a206e6f7420706175736564000000000000000000000000600082015250565b6000612ed160148361201e565b9150612edc82612e9b565b602082019050919050565b60006020820190508181036000830152612f0081612ec4565b9050919050565b7f45524332303a206d696e7420746f20746865207a65726f206164647265737300600082015250565b6000612f3d601f8361201e565b9150612f4882612f07565b602082019050919050565b60006020820190508181036000830152612f6c81612f30565b905091905056fea2646970667358221220b3a785c9d4242e052d7a392e5d40a7c1becd87485de959289c165812ab27d6f464736f6c63430008110033",
  "linkReferences": {},
  "deployedLinkReferences": {}
}