{
  "_format": "hh-sol-artifact-1",
  "contractName": "ManageLife",
  "sourceName": "contracts/ManageLife.sol",
  "abi": [
    {
      "inputs": [],
      "stateMutability": "nonpayable",
      "type": "constructor"
    },
    {
      "anonymous": false,
      "inputs": [
        {
          "indexed": true,
          "internalType": "address",
          "name": "owner",
          "type": "address"
        },
        {
          "indexed": true,
          "internalType": "address",
          "name": "approved",
          "type": "address"
        },
        {
          "indexed": true,
          "internalType": "uint256",
          "name": "tokenId",
          "type": "uint256"
        }
      ],
      "name": "Approval",
      "type": "event"
    },
    {
      "anonymous": false,
      "inputs": [
        {
          "indexed": true,
          "internalType": "address",
          "name": "owner",
          "type": "address"
        },
        {
          "indexed": true,
          "internalType": "address",
          "name": "operator",
          "type": "address"
        },
        {
          "indexed": false,
          "internalType": "bool",
          "name": "approved",
          "type": "bool"
        }
      ],
      "name": "ApprovalForAll",
      "type": "event"
    },
    {
      "anonymous": false,
      "inputs": [
        {
          "indexed": false,
          "internalType": "string",
          "name": "_newURIAddress",
          "type": "string"
        }
      ],
      "name": "BaseURIUpdated",
      "type": "event"
    },
    {
      "anonymous": false,
      "inputs": [
        {
          "indexed": false,
          "internalType": "uint256",
          "name": "tokenId",
          "type": "uint256"
        }
      ],
      "name": "FullyPaid",
      "type": "event"
    },
    {
      "anonymous": false,
      "inputs": [
        {
          "indexed": true,
          "internalType": "address",
          "name": "previousOwner",
          "type": "address"
        },
        {
          "indexed": true,
          "internalType": "address",
          "name": "newOwner",
          "type": "address"
        }
      ],
      "name": "OwnershipTransferred",
      "type": "event"
    },
    {
      "anonymous": false,
      "inputs": [
        {
          "indexed": false,
          "internalType": "uint256",
          "name": "tokenId",
          "type": "uint256"
        }
      ],
      "name": "StakingInitialized",
      "type": "event"
    },
    {
      "anonymous": false,
      "inputs": [
        {
          "indexed": false,
          "internalType": "uint256",
          "name": "token",
          "type": "uint256"
        },
        {
          "indexed": false,
          "internalType": "uint256",
          "name": "newLifeTokenIssuanceRate",
          "type": "uint256"
        }
      ],
      "name": "TokenIssuanceRateUpdated",
      "type": "event"
    },
    {
      "anonymous": false,
      "inputs": [
        {
          "indexed": true,
          "internalType": "address",
          "name": "from",
          "type": "address"
        },
        {
          "indexed": true,
          "internalType": "address",
          "name": "to",
          "type": "address"
        },
        {
          "indexed": true,
          "internalType": "uint256",
          "name": "tokenId",
          "type": "uint256"
        }
      ],
      "name": "Transfer",
      "type": "event"
    },
    {
      "inputs": [
        {
          "internalType": "address",
          "name": "to",
          "type": "address"
        },
        {
          "internalType": "uint256",
          "name": "tokenId",
          "type": "uint256"
        }
      ],
      "name": "approve",
      "outputs": [],
      "stateMutability": "nonpayable",
      "type": "function"
    },
    {
      "inputs": [
        {
          "internalType": "address",
          "name": "owner",
          "type": "address"
        }
      ],
      "name": "balanceOf",
      "outputs": [
        {
          "internalType": "uint256",
          "name": "",
          "type": "uint256"
        }
      ],
      "stateMutability": "view",
      "type": "function"
    },
    {
      "inputs": [],
      "name": "baseUri",
      "outputs": [
        {
          "internalType": "string",
          "name": "",
          "type": "string"
        }
      ],
      "stateMutability": "view",
      "type": "function"
    },
    {
      "inputs": [
        {
          "internalType": "uint256",
          "name": "tokenId",
          "type": "uint256"
        }
      ],
      "name": "burn",
      "outputs": [],
      "stateMutability": "nonpayable",
      "type": "function"
    },
    {
      "inputs": [
        {
          "internalType": "uint256",
          "name": "",
          "type": "uint256"
        }
      ],
      "name": "fullyPaid",
      "outputs": [
        {
          "internalType": "bool",
          "name": "",
          "type": "bool"
        }
      ],
      "stateMutability": "view",
      "type": "function"
    },
    {
      "inputs": [
        {
          "internalType": "uint256",
          "name": "tokenId",
          "type": "uint256"
        }
      ],
      "name": "getApproved",
      "outputs": [
        {
          "internalType": "address",
          "name": "",
          "type": "address"
        }
      ],
      "stateMutability": "view",
      "type": "function"
    },
    {
      "inputs": [
        {
          "internalType": "address",
          "name": "owner",
          "type": "address"
        },
        {
          "internalType": "address",
          "name": "operator",
          "type": "address"
        }
      ],
      "name": "isApprovedForAll",
      "outputs": [
        {
          "internalType": "bool",
          "name": "",
          "type": "bool"
        }
      ],
      "stateMutability": "view",
      "type": "function"
    },
    {
      "inputs": [],
      "name": "lifeToken",
      "outputs": [
        {
          "internalType": "contract Life",
          "name": "",
          "type": "address"
        }
      ],
      "stateMutability": "view",
      "type": "function"
    },
    {
      "inputs": [
        {
          "internalType": "uint256",
          "name": "",
          "type": "uint256"
        }
      ],
      "name": "lifeTokenIssuanceRate",
      "outputs": [
        {
          "internalType": "uint256",
          "name": "",
          "type": "uint256"
        }
      ],
      "stateMutability": "view",
      "type": "function"
    },
    {
      "inputs": [
        {
          "internalType": "uint256",
          "name": "tokenId",
          "type": "uint256"
        }
      ],
      "name": "markFullyPaid",
      "outputs": [],
      "stateMutability": "nonpayable",
      "type": "function"
    },
    {
      "inputs": [],
      "name": "marketplace",
      "outputs": [
        {
          "internalType": "contract Marketplace",
          "name": "",
          "type": "address"
        }
      ],
      "stateMutability": "view",
      "type": "function"
    },
    {
      "inputs": [
        {
          "internalType": "uint256",
          "name": "propertyId",
          "type": "uint256"
        },
        {
          "internalType": "uint256",
          "name": "lifeTokenIssuanceRate_",
          "type": "uint256"
        }
      ],
      "name": "mint",
      "outputs": [],
      "stateMutability": "nonpayable",
      "type": "function"
    },
    {
      "inputs": [],
      "name": "name",
      "outputs": [
        {
          "internalType": "string",
          "name": "",
          "type": "string"
        }
      ],
      "stateMutability": "view",
      "type": "function"
    },
    {
      "inputs": [],
      "name": "owner",
      "outputs": [
        {
          "internalType": "address",
          "name": "",
          "type": "address"
        }
      ],
      "stateMutability": "view",
      "type": "function"
    },
    {
      "inputs": [
        {
          "internalType": "uint256",
          "name": "tokenId",
          "type": "uint256"
        }
      ],
      "name": "ownerOf",
      "outputs": [
        {
          "internalType": "address",
          "name": "",
          "type": "address"
        }
      ],
      "stateMutability": "view",
      "type": "function"
    },
    {
      "inputs": [],
      "name": "renounceOwnership",
      "outputs": [],
      "stateMutability": "nonpayable",
      "type": "function"
    },
    {
      "inputs": [
        {
          "internalType": "uint256",
          "name": "tokenId",
          "type": "uint256"
        }
      ],
      "name": "retract",
      "outputs": [],
      "stateMutability": "nonpayable",
      "type": "function"
    },
    {
      "inputs": [
        {
          "internalType": "uint256",
          "name": "tokenId",
          "type": "uint256"
        }
      ],
      "name": "returnProperty",
      "outputs": [],
      "stateMutability": "nonpayable",
      "type": "function"
    },
    {
      "inputs": [
        {
          "internalType": "address",
          "name": "from",
          "type": "address"
        },
        {
          "internalType": "address",
          "name": "to",
          "type": "address"
        },
        {
          "internalType": "uint256",
          "name": "tokenId",
          "type": "uint256"
        }
      ],
      "name": "safeTransferFrom",
      "outputs": [],
      "stateMutability": "nonpayable",
      "type": "function"
    },
    {
      "inputs": [
        {
          "internalType": "address",
          "name": "from",
          "type": "address"
        },
        {
          "internalType": "address",
          "name": "to",
          "type": "address"
        },
        {
          "internalType": "uint256",
          "name": "tokenId",
          "type": "uint256"
        },
        {
          "internalType": "bytes",
          "name": "data",
          "type": "bytes"
        }
      ],
      "name": "safeTransferFrom",
      "outputs": [],
      "stateMutability": "nonpayable",
      "type": "function"
    },
    {
      "inputs": [
        {
          "internalType": "address",
          "name": "operator",
          "type": "address"
        },
        {
          "internalType": "bool",
          "name": "approved",
          "type": "bool"
        }
      ],
      "name": "setApprovalForAll",
      "outputs": [],
      "stateMutability": "nonpayable",
      "type": "function"
    },
    {
      "inputs": [
        {
          "internalType": "string",
          "name": "newBaseUri",
          "type": "string"
        }
      ],
      "name": "setBaseURI",
      "outputs": [],
      "stateMutability": "nonpayable",
      "type": "function"
    },
    {
      "inputs": [
        {
          "internalType": "address",
          "name": "lifeToken_",
          "type": "address"
        }
      ],
      "name": "setLifeToken",
      "outputs": [],
      "stateMutability": "nonpayable",
      "type": "function"
    },
    {
      "inputs": [
        {
          "internalType": "address payable",
          "name": "marketplace_",
          "type": "address"
        }
      ],
      "name": "setMarketplace",
      "outputs": [],
      "stateMutability": "nonpayable",
      "type": "function"
    },
    {
      "inputs": [
        {
          "internalType": "bytes4",
          "name": "interfaceId",
          "type": "bytes4"
        }
      ],
      "name": "supportsInterface",
      "outputs": [
        {
          "internalType": "bool",
          "name": "",
          "type": "bool"
        }
      ],
      "stateMutability": "view",
      "type": "function"
    },
    {
      "inputs": [],
      "name": "symbol",
      "outputs": [
        {
          "internalType": "string",
          "name": "",
          "type": "string"
        }
      ],
      "stateMutability": "view",
      "type": "function"
    },
    {
      "inputs": [
        {
          "internalType": "uint256",
          "name": "tokenId",
          "type": "uint256"
        }
      ],
      "name": "tokenURI",
      "outputs": [
        {
          "internalType": "string",
          "name": "",
          "type": "string"
        }
      ],
      "stateMutability": "view",
      "type": "function"
    },
    {
      "inputs": [
        {
          "internalType": "address",
          "name": "from",
          "type": "address"
        },
        {
          "internalType": "address",
          "name": "to",
          "type": "address"
        },
        {
          "internalType": "uint256",
          "name": "tokenId",
          "type": "uint256"
        }
      ],
      "name": "transferFrom",
      "outputs": [],
      "stateMutability": "nonpayable",
      "type": "function"
    },
    {
      "inputs": [
        {
          "internalType": "address",
          "name": "newOwner",
          "type": "address"
        }
      ],
      "name": "transferOwnership",
      "outputs": [],
      "stateMutability": "nonpayable",
      "type": "function"
    },
    {
      "inputs": [
        {
          "internalType": "uint256",
          "name": "tokenId",
          "type": "uint256"
        },
        {
          "internalType": "uint256",
          "name": "newLifeTokenIssuanceRate",
          "type": "uint256"
        }
      ],
      "name": "updateLifeTokenIssuanceRate",
      "outputs": [],
      "stateMutability": "nonpayable",
      "type": "function"
    }
  ],
  "bytecode": "0x60806040526040518060600160405280602e81526020016200453a602e9139600c90816200002e91906200043d565b503480156200003c57600080fd5b506040518060400160405280601181526020017f4d616e6167654c696665204d656d6265720000000000000000000000000000008152506040518060400160405280600481526020017f4d4c5245000000000000000000000000000000000000000000000000000000008152508160009081620000ba91906200043d565b508060019081620000cc91906200043d565b505050620000ef620000e3620000f560201b60201c565b620000fd60201b60201c565b62000524565b600033905090565b6000600760009054906101000a900473ffffffffffffffffffffffffffffffffffffffff16905081600760006101000a81548173ffffffffffffffffffffffffffffffffffffffff021916908373ffffffffffffffffffffffffffffffffffffffff1602179055508173ffffffffffffffffffffffffffffffffffffffff168173ffffffffffffffffffffffffffffffffffffffff167f8be0079c531659141344cd1fd0a4f28419497f9722a3daafe3b4186f6b6457e060405160405180910390a35050565b600081519050919050565b7f4e487b7100000000000000000000000000000000000000000000000000000000600052604160045260246000fd5b7f4e487b7100000000000000000000000000000000000000000000000000000000600052602260045260246000fd5b600060028204905060018216806200024557607f821691505b6020821081036200025b576200025a620001fd565b5b50919050565b60008190508160005260206000209050919050565b60006020601f8301049050919050565b600082821b905092915050565b600060088302620002c57fffffffffffffffffffffffffffffffffffffffffffffffffffffffffffffffff8262000286565b620002d1868362000286565b95508019841693508086168417925050509392505050565b6000819050919050565b6000819050919050565b60006200031e620003186200031284620002e9565b620002f3565b620002e9565b9050919050565b6000819050919050565b6200033a83620002fd565b62000352620003498262000325565b84845462000293565b825550505050565b600090565b620003696200035a565b620003768184846200032f565b505050565b5b818110156200039e57620003926000826200035f565b6001810190506200037c565b5050565b601f821115620003ed57620003b78162000261565b620003c28462000276565b81016020851015620003d2578190505b620003ea620003e18562000276565b8301826200037b565b50505b505050565b600082821c905092915050565b60006200041260001984600802620003f2565b1980831691505092915050565b60006200042d8383620003ff565b9150826002028217905092915050565b6200044882620001c3565b67ffffffffffffffff811115620004645762000463620001ce565b5b6200047082546200022c565b6200047d828285620003a2565b600060209050601f831160018114620004b55760008415620004a0578287015190505b620004ac85826200041f565b8655506200051c565b601f198416620004c58662000261565b60005b82811015620004ef57848901518255600182019150602085019450602081019050620004c8565b868310156200050f57848901516200050b601f891682620003ff565b8355505b6001600288020188555050505b505050505050565b61400680620005346000396000f3fe608060405234801561001057600080fd5b50600436106101da5760003560e01c8063715018a6116101045780639fab6656116100a2578063c87b56dd11610071578063c87b56dd14610529578063e11007ca14610559578063e985e9c514610575578063f2fde38b146105a5576101da565b80639fab6656146104b7578063a22cb465146104d3578063abc8c7af146104ef578063b88d4fde1461050d576101da565b80638da5cb5b116100de5780638da5cb5b146104415780638ef6aa021461045f57806395d89b411461047b5780639abc832014610499576101da565b8063715018a6146103ff57806373ad6c2d14610409578063749f042714610425576101da565b806323b872dd1161017c57806355f804b31161014b57806355f804b3146103675780636352211e1461038357806370a08231146103b357806370bba727146103e3576101da565b806323b872dd146102f557806330037c141461031157806342842e0e1461032f57806342966c681461034b576101da565b8063095ea7b3116101b8578063095ea7b31461025d5780631186b302146102795780631b2ef1ca146102a95780631b61f17e146102c5576101da565b806301ffc9a7146101df57806306fdde031461020f578063081812fc1461022d575b600080fd5b6101f960048036038101906101f49190612932565b6105c1565b604051610206919061297a565b60405180910390f35b6102176106a3565b6040516102249190612a25565b60405180910390f35b61024760048036038101906102429190612a7d565b610735565b6040516102549190612aeb565b60405180910390f35b61027760048036038101906102729190612b32565b61077b565b005b610293600480360381019061028e9190612a7d565b610886565b6040516102a0919061297a565b60405180910390f35b6102c360048036038101906102be9190612b72565b6108a6565b005b6102df60048036038101906102da9190612a7d565b6109bb565b6040516102ec9190612bc1565b60405180910390f35b61030f600480360381019061030a9190612bdc565b6109d3565b005b610319610a33565b6040516103269190612c8e565b60405180910390f35b61034960048036038101906103449190612bdc565b610a59565b005b61036560048036038101906103609190612a7d565b610a79565b005b610381600480360381019061037c9190612dde565b610a8d565b005b61039d60048036038101906103989190612a7d565b610adf565b6040516103aa9190612aeb565b60405180910390f35b6103cd60048036038101906103c89190612e27565b610b90565b6040516103da9190612bc1565b60405180910390f35b6103fd60048036038101906103f89190612b72565b610c47565b005b610407610dc0565b005b610423600480360381019061041e9190612e92565b610dd4565b005b61043f600480360381019061043a9190612a7d565b610e20565b005b610449610ebb565b6040516104569190612aeb565b60405180910390f35b61047960048036038101906104749190612e27565b610ee5565b005b610483610f31565b6040516104909190612a25565b60405180910390f35b6104a1610fc3565b6040516104ae9190612a25565b60405180910390f35b6104d160048036038101906104cc9190612a7d565b611051565b005b6104ed60048036038101906104e89190612eeb565b611086565b005b6104f761109c565b6040516105049190612f5e565b60405180910390f35b6105276004803603810190610522919061301a565b6110c2565b005b610543600480360381019061053e9190612a7d565b611124565b6040516105509190612a25565b60405180910390f35b610573600480360381019061056e9190612a7d565b611136565b005b61058f600480360381019061058a919061309d565b611274565b60405161059c919061297a565b60405180910390f35b6105bf60048036038101906105ba9190612e27565b611308565b005b60007f80ac58cd000000000000000000000000000000000000000000000000000000007bffffffffffffffffffffffffffffffffffffffffffffffffffffffff1916827bffffffffffffffffffffffffffffffffffffffffffffffffffffffff1916148061068c57507f5b5e139f000000000000000000000000000000000000000000000000000000007bffffffffffffffffffffffffffffffffffffffffffffffffffffffff1916827bffffffffffffffffffffffffffffffffffffffffffffffffffffffff1916145b8061069c575061069b8261138b565b5b9050919050565b6060600080546106b29061310c565b80601f01602080910402602001604051908101604052809291908181526020018280546106de9061310c565b801561072b5780601f106107005761010080835404028352916020019161072b565b820191906000526020600020905b81548152906001019060200180831161070e57829003601f168201915b5050505050905090565b6000610740826113f5565b6004600083815260200190815260200160002060009054906101000a900473ffffffffffffffffffffffffffffffffffffffff169050919050565b600b600082815260200190815260200160002060009054906101000a900460ff16806107e157506107aa610ebb565b73ffffffffffffffffffffffffffffffffffffffff166107c982610adf565b73ffffffffffffffffffffffffffffffffffffffff16145b806108395750600960009054906101000a900473ffffffffffffffffffffffffffffffffffffffff1673ffffffffffffffffffffffffffffffffffffffff168273ffffffffffffffffffffffffffffffffffffffff16145b610878576040517f08c379a000000000000000000000000000000000000000000000000000000000815260040161086f90613189565b60405180910390fd5b6108828282611440565b5050565b600b6020528060005260406000206000915054906101000a900460ff1681565b6108ae611557565b600073ffffffffffffffffffffffffffffffffffffffff16600860009054906101000a900473ffffffffffffffffffffffffffffffffffffffff1673ffffffffffffffffffffffffffffffffffffffff160361093f576040517f08c379a0000000000000000000000000000000000000000000000000000000008152600401610936906131f5565b60405180910390fd5b600082905061094d816115d5565b1561098d576040517f08c379a000000000000000000000000000000000000000000000000000000000815260040161098490613261565b60405180910390fd5b61099e610998610ebb565b84611641565b81600a600083815260200190815260200160002081905550505050565b600a6020528060005260406000206000915090505481565b6109e46109de61181a565b82611822565b610a23576040517f08c379a0000000000000000000000000000000000000000000000000000000008152600401610a1a906132f3565b60405180910390fd5b610a2e8383836118b7565b505050565b600860009054906101000a900473ffffffffffffffffffffffffffffffffffffffff1681565b610a74838383604051806020016040528060008152506110c2565b505050565b610a81611557565b610a8a81611b1d565b50565b610a95611557565b80600c9081610aa491906134b5565b507f6741b2fc379fad678116fe3d4d4b9a1a184ab53ba36b86ad0fa66340b1ab41ad81604051610ad49190612a25565b60405180910390a150565b6000806002600084815260200190815260200160002060009054906101000a900473ffffffffffffffffffffffffffffffffffffffff169050600073ffffffffffffffffffffffffffffffffffffffff168173ffffffffffffffffffffffffffffffffffffffff1603610b87576040517f08c379a0000000000000000000000000000000000000000000000000000000008152600401610b7e906135d3565b60405180910390fd5b80915050919050565b60008073ffffffffffffffffffffffffffffffffffffffff168273ffffffffffffffffffffffffffffffffffffffff1603610c00576040517f08c379a0000000000000000000000000000000000000000000000000000000008152600401610bf790613665565b60405180910390fd5b600360008373ffffffffffffffffffffffffffffffffffffffff1673ffffffffffffffffffffffffffffffffffffffff168152602001908152602001600020549050919050565b610c4f611557565b600860009054906101000a900473ffffffffffffffffffffffffffffffffffffffff1673ffffffffffffffffffffffffffffffffffffffff16638fad2627836040518263ffffffff1660e01b8152600401610caa9190612bc1565b600060405180830381600087803b158015610cc457600080fd5b505af1158015610cd8573d6000803e3d6000fd5b5050505080600a600084815260200190815260200160002081905550600860009054906101000a900473ffffffffffffffffffffffffffffffffffffffff1673ffffffffffffffffffffffffffffffffffffffff1663a85a039383426040518363ffffffff1660e01b8152600401610d519291906136a8565b600060405180830381600087803b158015610d6b57600080fd5b505af1158015610d7f573d6000803e3d6000fd5b505050507f65cd8169747e120e357190f330fa07804e78373538cb983ea2d369b00a26ffbc8282604051610db49291906136d1565b60405180910390a15050565b610dc8611557565b610dd26000611b29565b565b610ddc611557565b80600960006101000a81548173ffffffffffffffffffffffffffffffffffffffff021916908373ffffffffffffffffffffffffffffffffffffffff16021790555050565b610e2981610adf565b73ffffffffffffffffffffffffffffffffffffffff163373ffffffffffffffffffffffffffffffffffffffff1614610e96576040517f08c379a0000000000000000000000000000000000000000000000000000000008152600401610e8d90613746565b60405180910390fd5b610eb833610ea2610ebb565b83604051806020016040528060008152506110c2565b50565b6000600760009054906101000a900473ffffffffffffffffffffffffffffffffffffffff16905090565b610eed611557565b80600860006101000a81548173ffffffffffffffffffffffffffffffffffffffff021916908373ffffffffffffffffffffffffffffffffffffffff16021790555050565b606060018054610f409061310c565b80601f0160208091040260200160405190810160405280929190818152602001828054610f6c9061310c565b8015610fb95780601f10610f8e57610100808354040283529160200191610fb9565b820191906000526020600020905b815481529060010190602001808311610f9c57829003601f168201915b5050505050905090565b600c8054610fd09061310c565b80601f0160208091040260200160405190810160405280929190818152602001828054610ffc9061310c565b80156110495780601f1061101e57610100808354040283529160200191611049565b820191906000526020600020905b81548152906001019060200180831161102c57829003601f168201915b505050505081565b611059611557565b61108361106582610adf565b61106d610ebb565b8360405180602001604052806000815250611bef565b50565b61109861109161181a565b8383611c4b565b5050565b600960009054906101000a900473ffffffffffffffffffffffffffffffffffffffff1681565b6110d36110cd61181a565b83611822565b611112576040517f08c379a0000000000000000000000000000000000000000000000000000000008152600401611109906132f3565b60405180910390fd5b61111e84848484611bef565b50505050565b606061112f82611db7565b9050919050565b61113e611557565b6001600b600083815260200190815260200160002060006101000a81548160ff02191690831515021790555061117381610adf565b73ffffffffffffffffffffffffffffffffffffffff16611191610ebb565b73ffffffffffffffffffffffffffffffffffffffff161461123a57600860009054906101000a900473ffffffffffffffffffffffffffffffffffffffff1673ffffffffffffffffffffffffffffffffffffffff1663058d5b18826040518263ffffffff1660e01b81526004016112079190612bc1565b600060405180830381600087803b15801561122157600080fd5b505af1158015611235573d6000803e3d6000fd5b505050505b7ffd92f3b01566bece6b60cfcb9268a614454a5796aacf4ea170a57ee6a198f11f816040516112699190612bc1565b60405180910390a150565b6000600560008473ffffffffffffffffffffffffffffffffffffffff1673ffffffffffffffffffffffffffffffffffffffff16815260200190815260200160002060008373ffffffffffffffffffffffffffffffffffffffff1673ffffffffffffffffffffffffffffffffffffffff16815260200190815260200160002060009054906101000a900460ff16905092915050565b611310611557565b600073ffffffffffffffffffffffffffffffffffffffff168173ffffffffffffffffffffffffffffffffffffffff160361137f576040517f08c379a0000000000000000000000000000000000000000000000000000000008152600401611376906137d8565b60405180910390fd5b61138881611b29565b50565b60007f01ffc9a7000000000000000000000000000000000000000000000000000000007bffffffffffffffffffffffffffffffffffffffffffffffffffffffff1916827bffffffffffffffffffffffffffffffffffffffffffffffffffffffff1916149050919050565b6113fe816115d5565b61143d576040517f08c379a0000000000000000000000000000000000000000000000000000000008152600401611434906135d3565b60405180910390fd5b50565b600061144b82610adf565b90508073ffffffffffffffffffffffffffffffffffffffff168373ffffffffffffffffffffffffffffffffffffffff16036114bb576040517f08c379a00000000000000000000000000000000000000000000000000000000081526004016114b29061386a565b60405180910390fd5b8073ffffffffffffffffffffffffffffffffffffffff166114da61181a565b73ffffffffffffffffffffffffffffffffffffffff16148061150957506115088161150361181a565b611274565b5b611548576040517f08c379a000000000000000000000000000000000000000000000000000000000815260040161153f906138fc565b60405180910390fd5b6115528383611ec9565b505050565b61155f61181a565b73ffffffffffffffffffffffffffffffffffffffff1661157d610ebb565b73ffffffffffffffffffffffffffffffffffffffff16146115d3576040517f08c379a00000000000000000000000000000000000000000000000000000000081526004016115ca90613968565b60405180910390fd5b565b60008073ffffffffffffffffffffffffffffffffffffffff166002600084815260200190815260200160002060009054906101000a900473ffffffffffffffffffffffffffffffffffffffff1673ffffffffffffffffffffffffffffffffffffffff1614159050919050565b600073ffffffffffffffffffffffffffffffffffffffff168273ffffffffffffffffffffffffffffffffffffffff16036116b0576040517f08c379a00000000000000000000000000000000000000000000000000000000081526004016116a7906139d4565b60405180910390fd5b6116b9816115d5565b156116f9576040517f08c379a00000000000000000000000000000000000000000000000000000000081526004016116f090613a40565b60405180910390fd5b61170560008383611f82565b6001600360008473ffffffffffffffffffffffffffffffffffffffff1673ffffffffffffffffffffffffffffffffffffffff16815260200190815260200160002060008282546117559190613a8f565b92505081905550816002600083815260200190815260200160002060006101000a81548173ffffffffffffffffffffffffffffffffffffffff021916908373ffffffffffffffffffffffffffffffffffffffff160217905550808273ffffffffffffffffffffffffffffffffffffffff16600073ffffffffffffffffffffffffffffffffffffffff167fddf252ad1be2c89b69c2b068fc378daa952ba7f163c4a11628f55a4df523b3ef60405160405180910390a4611816600083836122eb565b5050565b600033905090565b60008061182e83610adf565b90508073ffffffffffffffffffffffffffffffffffffffff168473ffffffffffffffffffffffffffffffffffffffff161480611870575061186f8185611274565b5b806118ae57508373ffffffffffffffffffffffffffffffffffffffff1661189684610735565b73ffffffffffffffffffffffffffffffffffffffff16145b91505092915050565b8273ffffffffffffffffffffffffffffffffffffffff166118d782610adf565b73ffffffffffffffffffffffffffffffffffffffff161461192d576040517f08c379a000000000000000000000000000000000000000000000000000000000815260040161192490613b35565b60405180910390fd5b600073ffffffffffffffffffffffffffffffffffffffff168273ffffffffffffffffffffffffffffffffffffffff160361199c576040517f08c379a000000000000000000000000000000000000000000000000000000000815260040161199390613bc7565b60405180910390fd5b6119a7838383611f82565b6119b2600082611ec9565b6001600360008573ffffffffffffffffffffffffffffffffffffffff1673ffffffffffffffffffffffffffffffffffffffff1681526020019081526020016000206000828254611a029190613be7565b925050819055506001600360008473ffffffffffffffffffffffffffffffffffffffff1673ffffffffffffffffffffffffffffffffffffffff1681526020019081526020016000206000828254611a599190613a8f565b92505081905550816002600083815260200190815260200160002060006101000a81548173ffffffffffffffffffffffffffffffffffffffff021916908373ffffffffffffffffffffffffffffffffffffffff160217905550808273ffffffffffffffffffffffffffffffffffffffff168473ffffffffffffffffffffffffffffffffffffffff167fddf252ad1be2c89b69c2b068fc378daa952ba7f163c4a11628f55a4df523b3ef60405160405180910390a4611b188383836122eb565b505050565b611b26816122f0565b50565b6000600760009054906101000a900473ffffffffffffffffffffffffffffffffffffffff16905081600760006101000a81548173ffffffffffffffffffffffffffffffffffffffff021916908373ffffffffffffffffffffffffffffffffffffffff1602179055508173ffffffffffffffffffffffffffffffffffffffff168173ffffffffffffffffffffffffffffffffffffffff167f8be0079c531659141344cd1fd0a4f28419497f9722a3daafe3b4186f6b6457e060405160405180910390a35050565b611bfa8484846118b7565b611c0684848484612343565b611c45576040517f08c379a0000000000000000000000000000000000000000000000000000000008152600401611c3c90613c8d565b60405180910390fd5b50505050565b8173ffffffffffffffffffffffffffffffffffffffff168373ffffffffffffffffffffffffffffffffffffffff1603611cb9576040517f08c379a0000000000000000000000000000000000000000000000000000000008152600401611cb090613cf9565b60405180910390fd5b80600560008573ffffffffffffffffffffffffffffffffffffffff1673ffffffffffffffffffffffffffffffffffffffff16815260200190815260200160002060008473ffffffffffffffffffffffffffffffffffffffff1673ffffffffffffffffffffffffffffffffffffffff16815260200190815260200160002060006101000a81548160ff0219169083151502179055508173ffffffffffffffffffffffffffffffffffffffff168373ffffffffffffffffffffffffffffffffffffffff167f17307eab39ab6107e8899845ad3d59bd9653f200f220920489ca2b5937696c3183604051611daa919061297a565b60405180910390a3505050565b6060611dc2826113f5565b6000600660008481526020019081526020016000208054611de29061310c565b80601f0160208091040260200160405190810160405280929190818152602001828054611e0e9061310c565b8015611e5b5780601f10611e3057610100808354040283529160200191611e5b565b820191906000526020600020905b815481529060010190602001808311611e3e57829003601f168201915b505050505090506000611e6c6124ca565b90506000815103611e81578192505050611ec4565b600082511115611eb6578082604051602001611e9e929190613d55565b60405160208183030381529060405292505050611ec4565b611ebf8461255c565b925050505b919050565b816004600083815260200190815260200160002060006101000a81548173ffffffffffffffffffffffffffffffffffffffff021916908373ffffffffffffffffffffffffffffffffffffffff160217905550808273ffffffffffffffffffffffffffffffffffffffff16611f3c83610adf565b73ffffffffffffffffffffffffffffffffffffffff167f8c5be1e5ebec7d5bd14f71427d1e84f3dd0314c0f7b2291e5b200ac8c7c3b92560405160405180910390a45050565b600b600082815260200190815260200160002060009054906101000a900460ff1680611fe05750611fb1610ebb565b73ffffffffffffffffffffffffffffffffffffffff168373ffffffffffffffffffffffffffffffffffffffff16145b8061201d5750611fee610ebb565b73ffffffffffffffffffffffffffffffffffffffff168273ffffffffffffffffffffffffffffffffffffffff16145b806120755750600960009054906101000a900473ffffffffffffffffffffffffffffffffffffffff1673ffffffffffffffffffffffffffffffffffffffff163373ffffffffffffffffffffffffffffffffffffffff16145b6120b4576040517f08c379a00000000000000000000000000000000000000000000000000000000081526004016120ab90613dc5565b60405180910390fd5b600b600082815260200190815260200160002060009054906101000a900460ff166122a4576120e1610ebb565b73ffffffffffffffffffffffffffffffffffffffff168373ffffffffffffffffffffffffffffffffffffffff16036121a157600860009054906101000a900473ffffffffffffffffffffffffffffffffffffffff1673ffffffffffffffffffffffffffffffffffffffff1663058d5b18826040518263ffffffff1660e01b815260040161216e9190612bc1565b600060405180830381600087803b15801561218857600080fd5b505af115801561219c573d6000803e3d6000fd5b505050505b6121a9610ebb565b73ffffffffffffffffffffffffffffffffffffffff168273ffffffffffffffffffffffffffffffffffffffff161480156122105750600073ffffffffffffffffffffffffffffffffffffffff168373ffffffffffffffffffffffffffffffffffffffff1614155b156122a357600860009054906101000a900473ffffffffffffffffffffffffffffffffffffffff1673ffffffffffffffffffffffffffffffffffffffff16638fad2627826040518263ffffffff1660e01b81526004016122709190612bc1565b600060405180830381600087803b15801561228a57600080fd5b505af115801561229e573d6000803e3d6000fd5b505050505b5b7fa9221b3eb2f3271db7e28b6a5a6979741c9f9cf964de33992972986e5aca85ea816040516122d39190612bc1565b60405180910390a16122e68383836125c4565b505050565b505050565b6122f9816125c9565b60006006600083815260200190815260200160002080546123199061310c565b9050146123405760066000828152602001908152602001600020600061233f9190612869565b5b50565b60006123648473ffffffffffffffffffffffffffffffffffffffff166126e6565b156124bd578373ffffffffffffffffffffffffffffffffffffffff1663150b7a0261238d61181a565b8786866040518563ffffffff1660e01b81526004016123af9493929190613e3a565b6020604051808303816000875af19250505080156123eb57506040513d601f19601f820116820180604052508101906123e89190613e9b565b60015b61246d573d806000811461241b576040519150601f19603f3d011682016040523d82523d6000602084013e612420565b606091505b506000815103612465576040517f08c379a000000000000000000000000000000000000000000000000000000000815260040161245c90613c8d565b60405180910390fd5b805181602001fd5b63150b7a0260e01b7bffffffffffffffffffffffffffffffffffffffffffffffffffffffff1916817bffffffffffffffffffffffffffffffffffffffffffffffffffffffff1916149150506124c2565b600190505b949350505050565b6060600c80546124d99061310c565b80601f01602080910402602001604051908101604052809291908181526020018280546125059061310c565b80156125525780601f1061252757610100808354040283529160200191612552565b820191906000526020600020905b81548152906001019060200180831161253557829003601f168201915b5050505050905090565b6060612567826113f5565b60006125716124ca565b9050600081511161259157604051806020016040528060008152506125bc565b8061259b84612709565b6040516020016125ac929190613d55565b6040516020818303038152906040525b915050919050565b505050565b60006125d482610adf565b90506125e281600084611f82565b6125ed600083611ec9565b6001600360008373ffffffffffffffffffffffffffffffffffffffff1673ffffffffffffffffffffffffffffffffffffffff168152602001908152602001600020600082825461263d9190613be7565b925050819055506002600083815260200190815260200160002060006101000a81549073ffffffffffffffffffffffffffffffffffffffff021916905581600073ffffffffffffffffffffffffffffffffffffffff168273ffffffffffffffffffffffffffffffffffffffff167fddf252ad1be2c89b69c2b068fc378daa952ba7f163c4a11628f55a4df523b3ef60405160405180910390a46126e2816000846122eb565b5050565b6000808273ffffffffffffffffffffffffffffffffffffffff163b119050919050565b606060008203612750576040518060400160405280600181526020017f30000000000000000000000000000000000000000000000000000000000000008152509050612864565b600082905060005b6000821461278257808061276b90613ec8565b915050600a8261277b9190613f3f565b9150612758565b60008167ffffffffffffffff81111561279e5761279d612cb3565b5b6040519080825280601f01601f1916602001820160405280156127d05781602001600182028036833780820191505090505b5090505b6000851461285d576001826127e99190613be7565b9150600a856127f89190613f70565b60306128049190613a8f565b60f81b81838151811061281a57612819613fa1565b5b60200101907effffffffffffffffffffffffffffffffffffffffffffffffffffffffffffff1916908160001a905350600a856128569190613f3f565b94506127d4565b8093505050505b919050565b5080546128759061310c565b6000825580601f1061288757506128a6565b601f0160209004906000526020600020908101906128a591906128a9565b5b50565b5b808211156128c25760008160009055506001016128aa565b5090565b6000604051905090565b600080fd5b600080fd5b60007fffffffff0000000000000000000000000000000000000000000000000000000082169050919050565b61290f816128da565b811461291a57600080fd5b50565b60008135905061292c81612906565b92915050565b600060208284031215612948576129476128d0565b5b60006129568482850161291d565b91505092915050565b60008115159050919050565b6129748161295f565b82525050565b600060208201905061298f600083018461296b565b92915050565b600081519050919050565b600082825260208201905092915050565b60005b838110156129cf5780820151818401526020810190506129b4565b60008484015250505050565b6000601f19601f8301169050919050565b60006129f782612995565b612a0181856129a0565b9350612a118185602086016129b1565b612a1a816129db565b840191505092915050565b60006020820190508181036000830152612a3f81846129ec565b905092915050565b6000819050919050565b612a5a81612a47565b8114612a6557600080fd5b50565b600081359050612a7781612a51565b92915050565b600060208284031215612a9357612a926128d0565b5b6000612aa184828501612a68565b91505092915050565b600073ffffffffffffffffffffffffffffffffffffffff82169050919050565b6000612ad582612aaa565b9050919050565b612ae581612aca565b82525050565b6000602082019050612b006000830184612adc565b92915050565b612b0f81612aca565b8114612b1a57600080fd5b50565b600081359050612b2c81612b06565b92915050565b60008060408385031215612b4957612b486128d0565b5b6000612b5785828601612b1d565b9250506020612b6885828601612a68565b9150509250929050565b60008060408385031215612b8957612b886128d0565b5b6000612b9785828601612a68565b9250506020612ba885828601612a68565b9150509250929050565b612bbb81612a47565b82525050565b6000602082019050612bd66000830184612bb2565b92915050565b600080600060608486031215612bf557612bf46128d0565b5b6000612c0386828701612b1d565b9350506020612c1486828701612b1d565b9250506040612c2586828701612a68565b9150509250925092565b6000819050919050565b6000612c54612c4f612c4a84612aaa565b612c2f565b612aaa565b9050919050565b6000612c6682612c39565b9050919050565b6000612c7882612c5b565b9050919050565b612c8881612c6d565b82525050565b6000602082019050612ca36000830184612c7f565b92915050565b600080fd5b600080fd5b7f4e487b7100000000000000000000000000000000000000000000000000000000600052604160045260246000fd5b612ceb826129db565b810181811067ffffffffffffffff82111715612d0a57612d09612cb3565b5b80604052505050565b6000612d1d6128c6565b9050612d298282612ce2565b919050565b600067ffffffffffffffff821115612d4957612d48612cb3565b5b612d52826129db565b9050602081019050919050565b82818337600083830152505050565b6000612d81612d7c84612d2e565b612d13565b905082815260208101848484011115612d9d57612d9c612cae565b5b612da8848285612d5f565b509392505050565b600082601f830112612dc557612dc4612ca9565b5b8135612dd5848260208601612d6e565b91505092915050565b600060208284031215612df457612df36128d0565b5b600082013567ffffffffffffffff811115612e1257612e116128d5565b5b612e1e84828501612db0565b91505092915050565b600060208284031215612e3d57612e3c6128d0565b5b6000612e4b84828501612b1d565b91505092915050565b6000612e5f82612aaa565b9050919050565b612e6f81612e54565b8114612e7a57600080fd5b50565b600081359050612e8c81612e66565b92915050565b600060208284031215612ea857612ea76128d0565b5b6000612eb684828501612e7d565b91505092915050565b612ec88161295f565b8114612ed357600080fd5b50565b600081359050612ee581612ebf565b92915050565b60008060408385031215612f0257612f016128d0565b5b6000612f1085828601612b1d565b9250506020612f2185828601612ed6565b9150509250929050565b6000612f3682612c39565b9050919050565b6000612f4882612f2b565b9050919050565b612f5881612f3d565b82525050565b6000602082019050612f736000830184612f4f565b92915050565b600067ffffffffffffffff821115612f9457612f93612cb3565b5b612f9d826129db565b9050602081019050919050565b6000612fbd612fb884612f79565b612d13565b905082815260208101848484011115612fd957612fd8612cae565b5b612fe4848285612d5f565b509392505050565b600082601f83011261300157613000612ca9565b5b8135613011848260208601612faa565b91505092915050565b60008060008060808587031215613034576130336128d0565b5b600061304287828801612b1d565b945050602061305387828801612b1d565b935050604061306487828801612a68565b925050606085013567ffffffffffffffff811115613085576130846128d5565b5b61309187828801612fec565b91505092959194509250565b600080604083850312156130b4576130b36128d0565b5b60006130c285828601612b1d565b92505060206130d385828601612b1d565b9150509250929050565b7f4e487b7100000000000000000000000000000000000000000000000000000000600052602260045260246000fd5b6000600282049050600182168061312457607f821691505b602082108103613137576131366130dd565b5b50919050565b7f417070726f76616c207265737472696374656400000000000000000000000000600082015250565b60006131736013836129a0565b915061317e8261313d565b602082019050919050565b600060208201905081810360008301526131a281613166565b9050919050565b7f4c69666520746f6b656e206973206e6f74207365740000000000000000000000600082015250565b60006131df6015836129a0565b91506131ea826131a9565b602082019050919050565b6000602082019050818103600083015261320e816131d2565b9050919050565b7f4572726f723a20546f6b656e496420616c7265616479206d696e746564000000600082015250565b600061324b601d836129a0565b915061325682613215565b602082019050919050565b6000602082019050818103600083015261327a8161323e565b9050919050565b7f4552433732313a2063616c6c6572206973206e6f7420746f6b656e206f776e6560008201527f72206e6f7220617070726f766564000000000000000000000000000000000000602082015250565b60006132dd602e836129a0565b91506132e882613281565b604082019050919050565b6000602082019050818103600083015261330c816132d0565b9050919050565b60008190508160005260206000209050919050565b60006020601f8301049050919050565b600082821b905092915050565b6000600883026133757fffffffffffffffffffffffffffffffffffffffffffffffffffffffffffffffff82613338565b61337f8683613338565b95508019841693508086168417925050509392505050565b60006133b26133ad6133a884612a47565b612c2f565b612a47565b9050919050565b6000819050919050565b6133cc83613397565b6133e06133d8826133b9565b848454613345565b825550505050565b600090565b6133f56133e8565b6134008184846133c3565b505050565b5b81811015613424576134196000826133ed565b600181019050613406565b5050565b601f8211156134695761343a81613313565b61344384613328565b81016020851015613452578190505b61346661345e85613328565b830182613405565b50505b505050565b600082821c905092915050565b600061348c6000198460080261346e565b1980831691505092915050565b60006134a5838361347b565b9150826002028217905092915050565b6134be82612995565b67ffffffffffffffff8111156134d7576134d6612cb3565b5b6134e1825461310c565b6134ec828285613428565b600060209050601f83116001811461351f576000841561350d578287015190505b6135178582613499565b86555061357f565b601f19841661352d86613313565b60005b8281101561355557848901518255600182019150602085019450602081019050613530565b86831015613572578489015161356e601f89168261347b565b8355505b6001600288020188555050505b505050505050565b7f4552433732313a20696e76616c696420746f6b656e2049440000000000000000600082015250565b60006135bd6018836129a0565b91506135c882613587565b602082019050919050565b600060208201905081810360008301526135ec816135b0565b9050919050565b7f4552433732313a2061646472657373207a65726f206973206e6f74206120766160008201527f6c6964206f776e65720000000000000000000000000000000000000000000000602082015250565b600061364f6029836129a0565b915061365a826135f3565b604082019050919050565b6000602082019050818103600083015261367e81613642565b9050919050565b600067ffffffffffffffff82169050919050565b6136a281613685565b82525050565b60006040820190506136bd6000830185612bb2565b6136ca6020830184613699565b9392505050565b60006040820190506136e66000830185612bb2565b6136f36020830184612bb2565b9392505050565b7f43616c6c6572206973206e6f7420746865206f776e6572000000000000000000600082015250565b60006137306017836129a0565b915061373b826136fa565b602082019050919050565b6000602082019050818103600083015261375f81613723565b9050919050565b7f4f776e61626c653a206e6577206f776e657220697320746865207a65726f206160008201527f6464726573730000000000000000000000000000000000000000000000000000602082015250565b60006137c26026836129a0565b91506137cd82613766565b604082019050919050565b600060208201905081810360008301526137f1816137b5565b9050919050565b7f4552433732313a20617070726f76616c20746f2063757272656e74206f776e6560008201527f7200000000000000000000000000000000000000000000000000000000000000602082015250565b60006138546021836129a0565b915061385f826137f8565b604082019050919050565b6000602082019050818103600083015261388381613847565b9050919050565b7f4552433732313a20617070726f76652063616c6c6572206973206e6f7420746f60008201527f6b656e206f776e6572206e6f7220617070726f76656420666f7220616c6c0000602082015250565b60006138e6603e836129a0565b91506138f18261388a565b604082019050919050565b60006020820190508181036000830152613915816138d9565b9050919050565b7f4f776e61626c653a2063616c6c6572206973206e6f7420746865206f776e6572600082015250565b60006139526020836129a0565b915061395d8261391c565b602082019050919050565b6000602082019050818103600083015261398181613945565b9050919050565b7f4552433732313a206d696e7420746f20746865207a65726f2061646472657373600082015250565b60006139be6020836129a0565b91506139c982613988565b602082019050919050565b600060208201905081810360008301526139ed816139b1565b9050919050565b7f4552433732313a20746f6b656e20616c7265616479206d696e74656400000000600082015250565b6000613a2a601c836129a0565b9150613a35826139f4565b602082019050919050565b60006020820190508181036000830152613a5981613a1d565b9050919050565b7f4e487b7100000000000000000000000000000000000000000000000000000000600052601160045260246000fd5b6000613a9a82612a47565b9150613aa583612a47565b9250828201905080821115613abd57613abc613a60565b5b92915050565b7f4552433732313a207472616e736665722066726f6d20696e636f72726563742060008201527f6f776e6572000000000000000000000000000000000000000000000000000000602082015250565b6000613b1f6025836129a0565b9150613b2a82613ac3565b604082019050919050565b60006020820190508181036000830152613b4e81613b12565b9050919050565b7f4552433732313a207472616e7366657220746f20746865207a65726f2061646460008201527f7265737300000000000000000000000000000000000000000000000000000000602082015250565b6000613bb16024836129a0565b9150613bbc82613b55565b604082019050919050565b60006020820190508181036000830152613be081613ba4565b9050919050565b6000613bf282612a47565b9150613bfd83612a47565b9250828203905081811115613c1557613c14613a60565b5b92915050565b7f4552433732313a207472616e7366657220746f206e6f6e20455243373231526560008201527f63656976657220696d706c656d656e7465720000000000000000000000000000602082015250565b6000613c776032836129a0565b9150613c8282613c1b565b604082019050919050565b60006020820190508181036000830152613ca681613c6a565b9050919050565b7f4552433732313a20617070726f766520746f2063616c6c657200000000000000600082015250565b6000613ce36019836129a0565b9150613cee82613cad565b602082019050919050565b60006020820190508181036000830152613d1281613cd6565b9050919050565b600081905092915050565b6000613d2f82612995565b613d398185613d19565b9350613d498185602086016129b1565b80840191505092915050565b6000613d618285613d24565b9150613d6d8284613d24565b91508190509392505050565b7f5472616e73666572732072657374726963746564000000000000000000000000600082015250565b6000613daf6014836129a0565b9150613dba82613d79565b602082019050919050565b60006020820190508181036000830152613dde81613da2565b9050919050565b600081519050919050565b600082825260208201905092915050565b6000613e0c82613de5565b613e168185613df0565b9350613e268185602086016129b1565b613e2f816129db565b840191505092915050565b6000608082019050613e4f6000830187612adc565b613e5c6020830186612adc565b613e696040830185612bb2565b8181036060830152613e7b8184613e01565b905095945050505050565b600081519050613e9581612906565b92915050565b600060208284031215613eb157613eb06128d0565b5b6000613ebf84828501613e86565b91505092915050565b6000613ed382612a47565b91507fffffffffffffffffffffffffffffffffffffffffffffffffffffffffffffffff8203613f0557613f04613a60565b5b600182019050919050565b7f4e487b7100000000000000000000000000000000000000000000000000000000600052601260045260246000fd5b6000613f4a82612a47565b9150613f5583612a47565b925082613f6557613f64613f10565b5b828204905092915050565b6000613f7b82612a47565b9150613f8683612a47565b925082613f9657613f95613f10565b5b828206905092915050565b7f4e487b7100000000000000000000000000000000000000000000000000000000600052603260045260246000fdfea264697066735822122017ee1bcf298c23e40bb2b0454e2f69173f32a730bfcf852db8db498ec82a82d064736f6c6343000811003368747470733a2f2f69776562336170692e6d616e6167656c6966656170692e636f2f6170692f76312f6e6674732f",
  "linkReferences": {},
  "deployedLinkReferences": {}
}