{
  "_format": "hh-sol-artifact-1",
  "contractName": "ManageLifeInvestorsNFT",
  "sourceName": "contracts/MLInvestorsNFT.sol",
  "abi": [
    {
      "inputs": [],
      "stateMutability": "nonpayable",
      "type": "constructor"
    },
    {
      "inputs": [],
      "name": "ApprovalCallerNotOwnerNorApproved",
      "type": "error"
    },
    {
      "inputs": [],
      "name": "ApprovalQueryForNonexistentToken",
      "type": "error"
    },
    {
      "inputs": [],
      "name": "BalanceQueryForZeroAddress",
      "type": "error"
    },
    {
      "inputs": [],
      "name": "MintERC2309QuantityExceedsLimit",
      "type": "error"
    },
    {
      "inputs": [],
      "name": "MintToZeroAddress",
      "type": "error"
    },
    {
      "inputs": [],
      "name": "MintZeroQuantity",
      "type": "error"
    },
    {
      "inputs": [],
      "name": "OwnerQueryForNonexistentToken",
      "type": "error"
    },
    {
      "inputs": [],
      "name": "OwnershipNotInitializedForExtraData",
      "type": "error"
    },
    {
      "inputs": [],
      "name": "TransferCallerNotOwnerNorApproved",
      "type": "error"
    },
    {
      "inputs": [],
      "name": "TransferFromIncorrectOwner",
      "type": "error"
    },
    {
      "inputs": [],
      "name": "TransferToNonERC721ReceiverImplementer",
      "type": "error"
    },
    {
      "inputs": [],
      "name": "TransferToZeroAddress",
      "type": "error"
    },
    {
      "inputs": [],
      "name": "URIQueryForNonexistentToken",
      "type": "error"
    },
    {
      "anonymous": false,
      "inputs": [
        {
          "indexed": true,
          "internalType": "address",
          "name": "owner",
          "type": "address"
        },
        {
          "indexed": true,
          "internalType": "address",
          "name": "approved",
          "type": "address"
        },
        {
          "indexed": true,
          "internalType": "uint256",
          "name": "tokenId",
          "type": "uint256"
        }
      ],
      "name": "Approval",
      "type": "event"
    },
    {
      "anonymous": false,
      "inputs": [
        {
          "indexed": true,
          "internalType": "address",
          "name": "owner",
          "type": "address"
        },
        {
          "indexed": true,
          "internalType": "address",
          "name": "operator",
          "type": "address"
        },
        {
          "indexed": false,
          "internalType": "bool",
          "name": "approved",
          "type": "bool"
        }
      ],
      "name": "ApprovalForAll",
      "type": "event"
    },
    {
      "anonymous": false,
      "inputs": [
        {
          "indexed": false,
          "internalType": "string",
          "name": "_newURIAddress",
          "type": "string"
        }
      ],
      "name": "BaseURIUpdated",
      "type": "event"
    },
    {
      "anonymous": false,
      "inputs": [
        {
          "indexed": false,
          "internalType": "uint256",
          "name": "tokenId",
          "type": "uint256"
        }
      ],
      "name": "BurnedNft",
      "type": "event"
    },
    {
      "anonymous": false,
      "inputs": [
        {
          "indexed": true,
          "internalType": "uint256",
          "name": "fromTokenId",
          "type": "uint256"
        },
        {
          "indexed": false,
          "internalType": "uint256",
          "name": "toTokenId",
          "type": "uint256"
        },
        {
          "indexed": true,
          "internalType": "address",
          "name": "from",
          "type": "address"
        },
        {
          "indexed": true,
          "internalType": "address",
          "name": "to",
          "type": "address"
        }
      ],
      "name": "ConsecutiveTransfer",
      "type": "event"
    },
    {
      "anonymous": false,
      "inputs": [
        {
          "indexed": true,
          "internalType": "address",
          "name": "previousOwner",
          "type": "address"
        },
        {
          "indexed": true,
          "internalType": "address",
          "name": "newOwner",
          "type": "address"
        }
      ],
      "name": "OwnershipTransferred",
      "type": "event"
    },
    {
      "anonymous": false,
      "inputs": [
        {
          "indexed": true,
          "internalType": "address",
          "name": "claimaint",
          "type": "address"
        },
        {
          "indexed": false,
          "internalType": "uint256",
          "name": "tokenId",
          "type": "uint256"
        }
      ],
      "name": "StakingClaimed",
      "type": "event"
    },
    {
      "anonymous": false,
      "inputs": [
        {
          "indexed": true,
          "internalType": "uint256",
          "name": "tokenId",
          "type": "uint256"
        }
      ],
      "name": "StakingInitiated",
      "type": "event"
    },
    {
      "anonymous": false,
      "inputs": [
        {
          "indexed": true,
          "internalType": "address",
          "name": "burnFrom",
          "type": "address"
        },
        {
          "indexed": false,
          "internalType": "uint256",
          "name": "amount",
          "type": "uint256"
        }
      ],
      "name": "TokenBurned",
      "type": "event"
    },
    {
      "anonymous": false,
      "inputs": [
        {
          "indexed": true,
          "internalType": "uint256",
          "name": "tokenId",
          "type": "uint256"
        },
        {
          "indexed": false,
          "internalType": "uint256",
          "name": "newLifeTokenIssuanceRate",
          "type": "uint256"
        }
      ],
      "name": "TokenIssuanceRateUpdates",
      "type": "event"
    },
    {
      "anonymous": false,
      "inputs": [
        {
          "indexed": true,
          "internalType": "address",
          "name": "from",
          "type": "address"
        },
        {
          "indexed": true,
          "internalType": "address",
          "name": "to",
          "type": "address"
        },
        {
          "indexed": true,
          "internalType": "uint256",
          "name": "tokenId",
          "type": "uint256"
        }
      ],
      "name": "Transfer",
      "type": "event"
    },
    {
      "inputs": [
        {
          "internalType": "address",
          "name": "to",
          "type": "address"
        },
        {
          "internalType": "uint256",
          "name": "tokenId",
          "type": "uint256"
        }
      ],
      "name": "approve",
      "outputs": [],
      "stateMutability": "payable",
      "type": "function"
    },
    {
      "inputs": [
        {
          "internalType": "address",
          "name": "owner",
          "type": "address"
        }
      ],
      "name": "balanceOf",
      "outputs": [
        {
          "internalType": "uint256",
          "name": "",
          "type": "uint256"
        }
      ],
      "stateMutability": "view",
      "type": "function"
    },
    {
      "inputs": [],
      "name": "baseUri",
      "outputs": [
        {
          "internalType": "string",
          "name": "",
          "type": "string"
        }
      ],
      "stateMutability": "view",
      "type": "function"
    },
    {
      "inputs": [
        {
          "internalType": "uint256",
          "name": "tokenId",
          "type": "uint256"
        }
      ],
      "name": "burnNFt",
      "outputs": [],
      "stateMutability": "nonpayable",
      "type": "function"
    },
    {
      "inputs": [
        {
          "internalType": "uint256",
          "name": "tokenId",
          "type": "uint256"
        }
      ],
      "name": "checkClaimableStakingRewards",
      "outputs": [
        {
          "internalType": "uint256",
          "name": "",
          "type": "uint256"
        }
      ],
      "stateMutability": "view",
      "type": "function"
    },
    {
      "inputs": [
        {
          "internalType": "uint256",
          "name": "tokenId",
          "type": "uint256"
        }
      ],
      "name": "claimStakingRewards",
      "outputs": [],
      "stateMutability": "nonpayable",
      "type": "function"
    },
    {
      "inputs": [
        {
          "internalType": "uint256",
          "name": "tokenId",
          "type": "uint256"
        }
      ],
      "name": "forceClaimNft",
      "outputs": [],
      "stateMutability": "nonpayable",
      "type": "function"
    },
    {
      "inputs": [
        {
          "internalType": "uint256",
          "name": "tokenId",
          "type": "uint256"
        }
      ],
      "name": "getApproved",
      "outputs": [
        {
          "internalType": "address",
          "name": "",
          "type": "address"
        }
      ],
      "stateMutability": "view",
      "type": "function"
    },
    {
      "inputs": [
        {
          "internalType": "address",
          "name": "owner",
          "type": "address"
        },
        {
          "internalType": "address",
          "name": "operator",
          "type": "address"
        }
      ],
      "name": "isApprovedForAll",
      "outputs": [
        {
          "internalType": "bool",
          "name": "",
          "type": "bool"
        }
      ],
      "stateMutability": "view",
      "type": "function"
    },
    {
      "inputs": [
        {
          "internalType": "address",
          "name": "to",
          "type": "address"
        },
        {
          "internalType": "uint256",
          "name": "tokenId",
          "type": "uint256"
        },
        {
          "internalType": "uint256",
          "name": "lifeTokenIssuanceRate_",
          "type": "uint256"
        }
      ],
      "name": "issueNftToInvestor",
      "outputs": [],
      "stateMutability": "nonpayable",
      "type": "function"
    },
    {
      "inputs": [],
      "name": "lifeToken",
      "outputs": [
        {
          "internalType": "contract Life",
          "name": "",
          "type": "address"
        }
      ],
      "stateMutability": "view",
      "type": "function"
    },
    {
      "inputs": [
        {
          "internalType": "uint256",
          "name": "",
          "type": "uint256"
        }
      ],
      "name": "lifeTokenIssuanceRate",
      "outputs": [
        {
          "internalType": "uint256",
          "name": "",
          "type": "uint256"
        }
      ],
      "stateMutability": "view",
      "type": "function"
    },
    {
      "inputs": [
        {
          "internalType": "uint256",
          "name": "quantity",
          "type": "uint256"
        }
      ],
      "name": "mint",
      "outputs": [],
      "stateMutability": "nonpayable",
      "type": "function"
    },
    {
      "inputs": [],
      "name": "name",
      "outputs": [
        {
          "internalType": "string",
          "name": "",
          "type": "string"
        }
      ],
      "stateMutability": "view",
      "type": "function"
    },
    {
      "inputs": [],
      "name": "owner",
      "outputs": [
        {
          "internalType": "address",
          "name": "",
          "type": "address"
        }
      ],
      "stateMutability": "view",
      "type": "function"
    },
    {
      "inputs": [
        {
          "internalType": "uint256",
          "name": "tokenId",
          "type": "uint256"
        }
      ],
      "name": "ownerOf",
      "outputs": [
        {
          "internalType": "address",
          "name": "",
          "type": "address"
        }
      ],
      "stateMutability": "view",
      "type": "function"
    },
    {
      "inputs": [],
      "name": "renounceOwnership",
      "outputs": [],
      "stateMutability": "nonpayable",
      "type": "function"
    },
    {
      "inputs": [
        {
          "internalType": "uint256",
          "name": "tokenId",
          "type": "uint256"
        }
      ],
      "name": "returnNftToML",
      "outputs": [],
      "stateMutability": "nonpayable",
      "type": "function"
    },
    {
      "inputs": [
        {
          "internalType": "address",
          "name": "from",
          "type": "address"
        },
        {
          "internalType": "address",
          "name": "to",
          "type": "address"
        },
        {
          "internalType": "uint256",
          "name": "tokenId",
          "type": "uint256"
        }
      ],
      "name": "safeTransferFrom",
      "outputs": [],
      "stateMutability": "payable",
      "type": "function"
    },
    {
      "inputs": [
        {
          "internalType": "address",
          "name": "from",
          "type": "address"
        },
        {
          "internalType": "address",
          "name": "to",
          "type": "address"
        },
        {
          "internalType": "uint256",
          "name": "tokenId",
          "type": "uint256"
        },
        {
          "internalType": "bytes",
          "name": "_data",
          "type": "bytes"
        }
      ],
      "name": "safeTransferFrom",
      "outputs": [],
      "stateMutability": "payable",
      "type": "function"
    },
    {
      "inputs": [
        {
          "internalType": "address",
          "name": "operator",
          "type": "address"
        },
        {
          "internalType": "bool",
          "name": "approved",
          "type": "bool"
        }
      ],
      "name": "setApprovalForAll",
      "outputs": [],
      "stateMutability": "nonpayable",
      "type": "function"
    },
    {
      "inputs": [
        {
          "internalType": "string",
          "name": "newBaseUri",
          "type": "string"
        }
      ],
      "name": "setBaseURI",
      "outputs": [],
      "stateMutability": "nonpayable",
      "type": "function"
    },
    {
      "inputs": [
        {
          "internalType": "address",
          "name": "lifeToken_",
          "type": "address"
        }
      ],
      "name": "setLifeToken",
      "outputs": [],
      "stateMutability": "nonpayable",
      "type": "function"
    },
    {
      "inputs": [
        {
          "internalType": "uint256",
          "name": "tokenId",
          "type": "uint256"
        },
        {
          "internalType": "uint256",
          "name": "_newLockDate",
          "type": "uint256"
        }
      ],
      "name": "setLockDate",
      "outputs": [],
      "stateMutability": "nonpayable",
      "type": "function"
    },
    {
      "inputs": [
        {
          "internalType": "uint256",
          "name": "",
          "type": "uint256"
        }
      ],
      "name": "startOfStaking",
      "outputs": [
        {
          "internalType": "uint256",
          "name": "",
          "type": "uint256"
        }
      ],
      "stateMutability": "view",
      "type": "function"
    },
    {
      "inputs": [
        {
          "internalType": "bytes4",
          "name": "interfaceId",
          "type": "bytes4"
        }
      ],
      "name": "supportsInterface",
      "outputs": [
        {
          "internalType": "bool",
          "name": "",
          "type": "bool"
        }
      ],
      "stateMutability": "view",
      "type": "function"
    },
    {
      "inputs": [],
      "name": "symbol",
      "outputs": [
        {
          "internalType": "string",
          "name": "",
          "type": "string"
        }
      ],
      "stateMutability": "view",
      "type": "function"
    },
    {
      "inputs": [
        {
          "internalType": "uint256",
          "name": "tokenId",
          "type": "uint256"
        }
      ],
      "name": "tokenURI",
      "outputs": [
        {
          "internalType": "string",
          "name": "",
          "type": "string"
        }
      ],
      "stateMutability": "view",
      "type": "function"
    },
    {
      "inputs": [],
      "name": "totalSupply",
      "outputs": [
        {
          "internalType": "uint256",
          "name": "",
          "type": "uint256"
        }
      ],
      "stateMutability": "view",
      "type": "function"
    },
    {
      "inputs": [
        {
          "internalType": "address",
          "name": "from",
          "type": "address"
        },
        {
          "internalType": "address",
          "name": "to",
          "type": "address"
        },
        {
          "internalType": "uint256",
          "name": "tokenId",
          "type": "uint256"
        }
      ],
      "name": "transferFrom",
      "outputs": [],
      "stateMutability": "payable",
      "type": "function"
    },
    {
      "inputs": [
        {
          "internalType": "address",
          "name": "to",
          "type": "address"
        },
        {
          "internalType": "uint256",
          "name": "tokenId",
          "type": "uint256"
        }
      ],
      "name": "transferNft",
      "outputs": [],
      "stateMutability": "nonpayable",
      "type": "function"
    },
    {
      "inputs": [
        {
          "internalType": "address",
          "name": "newOwner",
          "type": "address"
        }
      ],
      "name": "transferOwnership",
      "outputs": [],
      "stateMutability": "nonpayable",
      "type": "function"
    },
    {
      "inputs": [
        {
          "internalType": "uint256",
          "name": "",
          "type": "uint256"
        }
      ],
      "name": "unlockDate",
      "outputs": [
        {
          "internalType": "uint256",
          "name": "",
          "type": "uint256"
        }
      ],
      "stateMutability": "view",
      "type": "function"
    },
    {
      "inputs": [
        {
          "internalType": "uint256",
          "name": "tokenId",
          "type": "uint256"
        },
        {
          "internalType": "uint256",
          "name": "newLifeTokenIssuanceRate",
          "type": "uint256"
        }
      ],
      "name": "updateLifeTokenIssuanceRate",
      "outputs": [],
      "stateMutability": "nonpayable",
      "type": "function"
    }
  ],
  "bytecode": "0x60806040526040518060600160405280602e815260200162003f21602e9139600d90816200002e919062000458565b503480156200003c57600080fd5b506040518060400160405280601381526020017f4d616e6167654c69666520496e766573746f72000000000000000000000000008152506040518060400160405280600981526020017f4d4c6966654e46546900000000000000000000000000000000000000000000008152508160029081620000ba919062000458565b508060039081620000cc919062000458565b50620000dd6200010b60201b60201c565b600081905550505062000105620000f96200011060201b60201c565b6200011860201b60201c565b6200053f565b600090565b600033905090565b6000600860009054906101000a900473ffffffffffffffffffffffffffffffffffffffff16905081600860006101000a81548173ffffffffffffffffffffffffffffffffffffffff021916908373ffffffffffffffffffffffffffffffffffffffff1602179055508173ffffffffffffffffffffffffffffffffffffffff168173ffffffffffffffffffffffffffffffffffffffff167f8be0079c531659141344cd1fd0a4f28419497f9722a3daafe3b4186f6b6457e060405160405180910390a35050565b600081519050919050565b7f4e487b7100000000000000000000000000000000000000000000000000000000600052604160045260246000fd5b7f4e487b7100000000000000000000000000000000000000000000000000000000600052602260045260246000fd5b600060028204905060018216806200026057607f821691505b60208210810362000276576200027562000218565b5b50919050565b60008190508160005260206000209050919050565b60006020601f8301049050919050565b600082821b905092915050565b600060088302620002e07fffffffffffffffffffffffffffffffffffffffffffffffffffffffffffffffff82620002a1565b620002ec8683620002a1565b95508019841693508086168417925050509392505050565b6000819050919050565b6000819050919050565b600062000339620003336200032d8462000304565b6200030e565b62000304565b9050919050565b6000819050919050565b620003558362000318565b6200036d620003648262000340565b848454620002ae565b825550505050565b600090565b6200038462000375565b620003918184846200034a565b505050565b5b81811015620003b957620003ad6000826200037a565b60018101905062000397565b5050565b601f8211156200040857620003d2816200027c565b620003dd8462000291565b81016020851015620003ed578190505b62000405620003fc8562000291565b83018262000396565b50505b505050565b600082821c905092915050565b60006200042d600019846008026200040d565b1980831691505092915050565b60006200044883836200041a565b9150826002028217905092915050565b6200046382620001de565b67ffffffffffffffff8111156200047f576200047e620001e9565b5b6200048b825462000247565b62000498828285620003bd565b600060209050601f831160018114620004d05760008415620004bb578287015190505b620004c785826200043a565b86555062000537565b601f198416620004e0866200027c565b60005b828110156200050a57848901518255600182019150602085019450602081019050620004e3565b868310156200052a578489015162000526601f8916826200041a565b8355505b6001600288020188555050505b505050505050565b6139d2806200054f6000396000f3fe6080604052600436106101f95760003560e01c8063715018a61161010d578063a0712d68116100a0578063df028f4e1161006f578063df028f4e1461071d578063e985e9c514610746578063f117edc014610783578063f2fde38b146107ac578063f67f031a146107d5576101f9565b8063a0712d6814610672578063a22cb4651461069b578063b88d4fde146106c4578063c87b56dd146106e0576101f9565b8063948d4d2e116100dc578063948d4d2e146105b657806395d89b41146105f357806396272dea1461061e5780639abc832014610647576101f9565b8063715018a6146105225780638da5cb5b146105395780638ef6aa02146105645780638fad26271461058d576101f9565b806330037c141161019057806360cc11211161015f57806360cc11211461042d5780636352211e146104565780636a3083481461049357806370a08231146104bc57806370bba727146104f9576101f9565b806330037c1414610380578063302f4b4e146103ab57806342842e0e146103e857806355f804b314610404576101f9565b806311b1fd3a116101cc57806311b1fd3a146102bf57806318160ddd146102fc5780631b61f17e1461032757806323b872dd14610364576101f9565b806301ffc9a7146101fe57806306fdde031461023b578063081812fc14610266578063095ea7b3146102a3575b600080fd5b34801561020a57600080fd5b5061022560048036038101906102209190612898565b6107fe565b60405161023291906128e0565b60405180910390f35b34801561024757600080fd5b50610250610890565b60405161025d919061298b565b60405180910390f35b34801561027257600080fd5b5061028d600480360381019061028891906129e3565b610922565b60405161029a9190612a51565b60405180910390f35b6102bd60048036038101906102b89190612a98565b6109a1565b005b3480156102cb57600080fd5b506102e660048036038101906102e191906129e3565b610ae5565b6040516102f39190612ae7565b60405180910390f35b34801561030857600080fd5b50610311610afd565b60405161031e9190612ae7565b60405180910390f35b34801561033357600080fd5b5061034e600480360381019061034991906129e3565b610b14565b60405161035b9190612ae7565b60405180910390f35b61037e60048036038101906103799190612b02565b610b2c565b005b34801561038c57600080fd5b50610395610e4e565b6040516103a29190612bb4565b60405180910390f35b3480156103b757600080fd5b506103d260048036038101906103cd91906129e3565b610e74565b6040516103df9190612ae7565b60405180910390f35b61040260048036038101906103fd9190612b02565b610eba565b005b34801561041057600080fd5b5061042b60048036038101906104269190612d04565b610eda565b005b34801561043957600080fd5b50610454600480360381019061044f9190612a98565b610f2c565b005b34801561046257600080fd5b5061047d600480360381019061047891906129e3565b6110c4565b60405161048a9190612a51565b60405180910390f35b34801561049f57600080fd5b506104ba60048036038101906104b591906129e3565b6110d6565b005b3480156104c857600080fd5b506104e360048036038101906104de9190612d4d565b611195565b6040516104f09190612ae7565b60405180910390f35b34801561050557600080fd5b50610520600480360381019061051b9190612d7a565b61124d565b005b34801561052e57600080fd5b50610537611360565b005b34801561054557600080fd5b5061054e611374565b60405161055b9190612a51565b60405180910390f35b34801561057057600080fd5b5061058b60048036038101906105869190612d4d565b61139e565b005b34801561059957600080fd5b506105b460048036038101906105af91906129e3565b6113ea565b005b3480156105c257600080fd5b506105dd60048036038101906105d891906129e3565b6116a6565b6040516105ea9190612ae7565b60405180910390f35b3480156105ff57600080fd5b506106086116be565b604051610615919061298b565b60405180910390f35b34801561062a57600080fd5b50610645600480360381019061064091906129e3565b611750565b005b34801561065357600080fd5b5061065c61179b565b604051610669919061298b565b60405180910390f35b34801561067e57600080fd5b50610699600480360381019061069491906129e3565b611829565b005b3480156106a757600080fd5b506106c260048036038101906106bd9190612de6565b61183e565b005b6106de60048036038101906106d99190612ec7565b611949565b005b3480156106ec57600080fd5b50610707600480360381019061070291906129e3565b6119bc565b604051610714919061298b565b60405180910390f35b34801561072957600080fd5b50610744600480360381019061073f9190612f4a565b611a5a565b005b34801561075257600080fd5b5061076d60048036038101906107689190612f9d565b611aba565b60405161077a91906128e0565b60405180910390f35b34801561078f57600080fd5b506107aa60048036038101906107a59190612d7a565b611b4e565b005b3480156107b857600080fd5b506107d360048036038101906107ce9190612d4d565b611b72565b005b3480156107e157600080fd5b506107fc60048036038101906107f791906129e3565b611bf5565b005b60006301ffc9a760e01b827bffffffffffffffffffffffffffffffffffffffffffffffffffffffff1916148061085957506380ac58cd60e01b827bffffffffffffffffffffffffffffffffffffffffffffffffffffffff1916145b806108895750635b5e139f60e01b827bffffffffffffffffffffffffffffffffffffffffffffffffffffffff1916145b9050919050565b60606002805461089f9061300c565b80601f01602080910402602001604051908101604052809291908181526020018280546108cb9061300c565b80156109185780601f106108ed57610100808354040283529160200191610918565b820191906000526020600020905b8154815290600101906020018083116108fb57829003601f168201915b5050505050905090565b600061092d82611c13565b610963576040517fcf4700e400000000000000000000000000000000000000000000000000000000815260040160405180910390fd5b6006600083815260200190815260200160002060000160009054906101000a900473ffffffffffffffffffffffffffffffffffffffff169050919050565b60006109ac826110c4565b90508073ffffffffffffffffffffffffffffffffffffffff166109cd611c72565b73ffffffffffffffffffffffffffffffffffffffff1614610a30576109f9816109f4611c72565b611aba565b610a2f576040517fcfb3b94200000000000000000000000000000000000000000000000000000000815260040160405180910390fd5b5b826006600084815260200190815260200160002060000160006101000a81548173ffffffffffffffffffffffffffffffffffffffff021916908373ffffffffffffffffffffffffffffffffffffffff160217905550818373ffffffffffffffffffffffffffffffffffffffff168273ffffffffffffffffffffffffffffffffffffffff167f8c5be1e5ebec7d5bd14f71427d1e84f3dd0314c0f7b2291e5b200ac8c7c3b92560405160405180910390a4505050565b600b6020528060005260406000206000915090505481565b6000610b07611c7a565b6001546000540303905090565b600a6020528060005260406000206000915090505481565b6000610b3782611c7f565b90508373ffffffffffffffffffffffffffffffffffffffff168173ffffffffffffffffffffffffffffffffffffffff1614610b9e576040517fa114810000000000000000000000000000000000000000000000000000000000815260040160405180910390fd5b600080610baa84611d4b565b91509150610bc08187610bbb611c72565b611d72565b610c0c57610bd586610bd0611c72565b611aba565b610c0b576040517f59c896be00000000000000000000000000000000000000000000000000000000815260040160405180910390fd5b5b600073ffffffffffffffffffffffffffffffffffffffff168573ffffffffffffffffffffffffffffffffffffffff1603610c72576040517fea553b3400000000000000000000000000000000000000000000000000000000815260040160405180910390fd5b610c7f8686866001611db6565b8015610c8a57600082555b600560008773ffffffffffffffffffffffffffffffffffffffff1673ffffffffffffffffffffffffffffffffffffffff168152602001908152602001600020600081546001900391905081905550600560008673ffffffffffffffffffffffffffffffffffffffff1673ffffffffffffffffffffffffffffffffffffffff1681526020019081526020016000206000815460010191905081905550610d5885610d34888887611e7f565b7c020000000000000000000000000000000000000000000000000000000017611ea7565b600460008681526020019081526020016000208190555060007c0200000000000000000000000000000000000000000000000000000000841603610dde5760006001850190506000600460008381526020019081526020016000205403610ddc576000548114610ddb578360046000838152602001908152602001600020819055505b5b505b838573ffffffffffffffffffffffffffffffffffffffff168773ffffffffffffffffffffffffffffffffffffffff167fddf252ad1be2c89b69c2b068fc378daa952ba7f163c4a11628f55a4df523b3ef60405160405180910390a4610e468686866001611ed2565b505050505050565b600960009054906101000a900473ffffffffffffffffffffffffffffffffffffffff1681565b6000600a600083815260200190815260200160002054600b60008481526020019081526020016000205442610ea9919061306c565b610eb391906130a0565b9050919050565b610ed583838360405180602001604052806000815250611949565b505050565b610ee2611ed8565b80600d9081610ef19190613284565b507f6741b2fc379fad678116fe3d4d4b9a1a184ab53ba36b86ad0fa66340b1ab41ad81604051610f21919061298b565b60405180910390a150565b610f35816110c4565b73ffffffffffffffffffffffffffffffffffffffff163373ffffffffffffffffffffffffffffffffffffffff1614610fa2576040517f08c379a0000000000000000000000000000000000000000000000000000000008152600401610f99906133c8565b60405180910390fd5b610faa611374565b73ffffffffffffffffffffffffffffffffffffffff163373ffffffffffffffffffffffffffffffffffffffff1603610fec57610fe7338383610eba565b611099565b600c600082815260200190815260200160002054421015611042576040517f08c379a00000000000000000000000000000000000000000000000000000000081526004016110399061345a565b60405180910390fd5b606461104d82610e74565b1161108d576040517f08c379a0000000000000000000000000000000000000000000000000000000008152600401611084906134c6565b60405180910390fd5b611098338383610eba565b5b6301e13380426110a991906134e6565b600c6000838152602001908152602001600020819055505050565b60006110cf82611c7f565b9050919050565b806110e0816110c4565b73ffffffffffffffffffffffffffffffffffffffff163373ffffffffffffffffffffffffffffffffffffffff161461114d576040517f08c379a00000000000000000000000000000000000000000000000000000000081526004016111449061358c565b60405180910390fd5b600061115883610e74565b1061116757611166826113ea565b5b42600c6000848152602001908152602001600020819055506111913361118b611374565b84610eba565b5050565b60008073ffffffffffffffffffffffffffffffffffffffff168273ffffffffffffffffffffffffffffffffffffffff16036111fc576040517f8f4eb60400000000000000000000000000000000000000000000000000000000815260040160405180910390fd5b67ffffffffffffffff600560008473ffffffffffffffffffffffffffffffffffffffff1673ffffffffffffffffffffffffffffffffffffffff16815260200190815260200160002054169050919050565b611255611ed8565b600960009054906101000a900473ffffffffffffffffffffffffffffffffffffffff1673ffffffffffffffffffffffffffffffffffffffff16638348749861129c846110c4565b6112a585610e74565b6040518363ffffffff1660e01b81526004016112c29291906135ac565b600060405180830381600087803b1580156112dc57600080fd5b505af11580156112f0573d6000803e3d6000fd5b5050505042600b60008481526020019081526020016000208190555080600a600084815260200190815260200160002081905550817f18e383d3900bb5f9adbf556eb0f63226cfc096e78ae4c9a6aebc1353aeae1b62826040516113549190612ae7565b60405180910390a25050565b611368611ed8565b6113726000611f56565b565b6000600860009054906101000a900473ffffffffffffffffffffffffffffffffffffffff16905090565b6113a6611ed8565b80600960006101000a81548173ffffffffffffffffffffffffffffffffffffffff021916908373ffffffffffffffffffffffffffffffffffffffff16021790555050565b806113f4816110c4565b73ffffffffffffffffffffffffffffffffffffffff163373ffffffffffffffffffffffffffffffffffffffff1614611461576040517f08c379a00000000000000000000000000000000000000000000000000000000081526004016114589061358c565b60405180910390fd5b611469611374565b73ffffffffffffffffffffffffffffffffffffffff163373ffffffffffffffffffffffffffffffffffffffff16141580156115605750600960009054906101000a900473ffffffffffffffffffffffffffffffffffffffff1673ffffffffffffffffffffffffffffffffffffffff16638da5cb5b6040518163ffffffff1660e01b8152600401602060405180830381865afa15801561150c573d6000803e3d6000fd5b505050506040513d601f19601f8201168201806040525081019061153091906135ea565b73ffffffffffffffffffffffffffffffffffffffff163373ffffffffffffffffffffffffffffffffffffffff1614155b61159f576040517f08c379a000000000000000000000000000000000000000000000000000000000815260040161159690613663565b60405180910390fd5b60006115aa83610e74565b9050600960009054906101000a900473ffffffffffffffffffffffffffffffffffffffff1673ffffffffffffffffffffffffffffffffffffffff16638348749833836040518363ffffffff1660e01b81526004016116099291906135ac565b600060405180830381600087803b15801561162357600080fd5b505af1158015611637573d6000803e3d6000fd5b5050505042600b6000858152602001908152602001600020819055503373ffffffffffffffffffffffffffffffffffffffff167fed0efac57f2275dc27a26c14eb538dfadcfb7b3a0cc0eae190d2a782e1ae664e846040516116999190612ae7565b60405180910390a2505050565b600c6020528060005260406000206000915090505481565b6060600380546116cd9061300c565b80601f01602080910402602001604051908101604052809291908181526020018280546116f99061300c565b80156117465780601f1061171b57610100808354040283529160200191611746565b820191906000526020600020905b81548152906001019060200180831161172957829003601f168201915b5050505050905090565b611758611ed8565b6117618161201c565b7f6834152b13b14874ce1a95c7f53d552459481e9875ead957a619501238169a32816040516117909190612ae7565b60405180910390a150565b600d80546117a89061300c565b80601f01602080910402602001604051908101604052809291908181526020018280546117d49061300c565b80156118215780601f106117f657610100808354040283529160200191611821565b820191906000526020600020905b81548152906001019060200180831161180457829003601f168201915b505050505081565b611831611ed8565b61183b338261202a565b50565b806007600061184b611c72565b73ffffffffffffffffffffffffffffffffffffffff1673ffffffffffffffffffffffffffffffffffffffff16815260200190815260200160002060008473ffffffffffffffffffffffffffffffffffffffff1673ffffffffffffffffffffffffffffffffffffffff16815260200190815260200160002060006101000a81548160ff0219169083151502179055508173ffffffffffffffffffffffffffffffffffffffff166118f8611c72565b73ffffffffffffffffffffffffffffffffffffffff167f17307eab39ab6107e8899845ad3d59bd9653f200f220920489ca2b5937696c318360405161193d91906128e0565b60405180910390a35050565b611954848484610b2c565b60008373ffffffffffffffffffffffffffffffffffffffff163b146119b65761197f84848484612048565b6119b5576040517fd1a57ed600000000000000000000000000000000000000000000000000000000815260040160405180910390fd5b5b50505050565b60606119c782611c13565b6119fd576040517fa14c4b5000000000000000000000000000000000000000000000000000000000815260040160405180910390fd5b6000611a07612198565b90506000815103611a275760405180602001604052806000815250611a52565b80611a318461222a565b604051602001611a429291906136bf565b6040516020818303038152906040525b915050919050565b611a62611ed8565b80600a600084815260200190815260200160002081905550611a85338484610eba565b6301e1338042611a9591906134e6565b600c600084815260200190815260200160002081905550611ab58261227a565b505050565b6000600760008473ffffffffffffffffffffffffffffffffffffffff1673ffffffffffffffffffffffffffffffffffffffff16815260200190815260200160002060008373ffffffffffffffffffffffffffffffffffffffff1673ffffffffffffffffffffffffffffffffffffffff16815260200190815260200160002060009054906101000a900460ff16905092915050565b611b56611ed8565b80600c6000848152602001908152602001600020819055505050565b611b7a611ed8565b600073ffffffffffffffffffffffffffffffffffffffff168173ffffffffffffffffffffffffffffffffffffffff1603611be9576040517f08c379a0000000000000000000000000000000000000000000000000000000008152600401611be090613755565b60405180910390fd5b611bf281611f56565b50565b611bfd611ed8565b611c10611c09826110c4565b3383610eba565b50565b600081611c1e611c7a565b11158015611c2d575060005482105b8015611c6b575060007c0100000000000000000000000000000000000000000000000000000000600460008581526020019081526020016000205416145b9050919050565b600033905090565b600090565b60008082905080611c8e611c7a565b11611d1457600054811015611d135760006004600083815260200190815260200160002054905060007c0100000000000000000000000000000000000000000000000000000000821603611d11575b60008103611d07576004600083600190039350838152602001908152602001600020549050611cdd565b8092505050611d46565b505b5b6040517fdf2d9b4200000000000000000000000000000000000000000000000000000000815260040160405180910390fd5b919050565b60008060006006600085815260200190815260200160002090508092508254915050915091565b600073ffffffffffffffffffffffffffffffffffffffff8316925073ffffffffffffffffffffffffffffffffffffffff821691508382148383141790509392505050565b611dbe611374565b73ffffffffffffffffffffffffffffffffffffffff168373ffffffffffffffffffffffffffffffffffffffff1614611e465742600c60008481526020019081526020016000205410611e45576040517f08c379a0000000000000000000000000000000000000000000000000000000008152600401611e3c906137c1565b60405180910390fd5b5b6301e1338042611e5691906134e6565b600c600084815260200190815260200160002081905550611e798484848461235b565b50505050565b60008060e883901c905060e8611e96868684612361565b62ffffff16901b9150509392505050565b600073ffffffffffffffffffffffffffffffffffffffff83169250814260a01b178317905092915050565b50505050565b611ee061236a565b73ffffffffffffffffffffffffffffffffffffffff16611efe611374565b73ffffffffffffffffffffffffffffffffffffffff1614611f54576040517f08c379a0000000000000000000000000000000000000000000000000000000008152600401611f4b9061382d565b60405180910390fd5b565b6000600860009054906101000a900473ffffffffffffffffffffffffffffffffffffffff16905081600860006101000a81548173ffffffffffffffffffffffffffffffffffffffff021916908373ffffffffffffffffffffffffffffffffffffffff1602179055508173ffffffffffffffffffffffffffffffffffffffff168173ffffffffffffffffffffffffffffffffffffffff167f8be0079c531659141344cd1fd0a4f28419497f9722a3daafe3b4186f6b6457e060405160405180910390a35050565b612027816000612372565b50565b6120448282604051806020016040528060008152506125c4565b5050565b60008373ffffffffffffffffffffffffffffffffffffffff1663150b7a0261206e611c72565b8786866040518563ffffffff1660e01b815260040161209094939291906138a2565b6020604051808303816000875af19250505080156120cc57506040513d601f19601f820116820180604052508101906120c99190613903565b60015b612145573d80600081146120fc576040519150601f19603f3d011682016040523d82523d6000602084013e612101565b606091505b50600081510361213d576040517fd1a57ed600000000000000000000000000000000000000000000000000000000815260040160405180910390fd5b805181602001fd5b63150b7a0260e01b7bffffffffffffffffffffffffffffffffffffffffffffffffffffffff1916817bffffffffffffffffffffffffffffffffffffffffffffffffffffffff191614915050949350505050565b6060600d80546121a79061300c565b80601f01602080910402602001604051908101604052809291908181526020018280546121d39061300c565b80156122205780601f106121f557610100808354040283529160200191612220565b820191906000526020600020905b81548152906001019060200180831161220357829003601f168201915b5050505050905090565b606060a060405101806040526020810391506000825281835b60011561226557600184039350600a81066030018453600a8104905080612243575b50828103602084039350808452505050919050565b612282611ed8565b600073ffffffffffffffffffffffffffffffffffffffff16600960009054906101000a900473ffffffffffffffffffffffffffffffffffffffff1673ffffffffffffffffffffffffffffffffffffffff1603612313576040517f08c379a000000000000000000000000000000000000000000000000000000000815260040161230a9061397c565b60405180910390fd5b42600b600083815260200190815260200160002081905550807f2746ab4492c39d74ce45fb53adf5bbfbe35aa35d6f3773991c019b4bbdcadda160405160405180910390a250565b50505050565b60009392505050565b600033905090565b600061237d83611c7f565b9050600081905060008061239086611d4b565b9150915084156123f9576123ac81846123a7611c72565b611d72565b6123f8576123c1836123bc611c72565b611aba565b6123f7576040517f59c896be00000000000000000000000000000000000000000000000000000000815260040160405180910390fd5b5b5b612407836000886001611db6565b801561241257600082555b600160806001901b03600560008573ffffffffffffffffffffffffffffffffffffffff1673ffffffffffffffffffffffffffffffffffffffff168152602001908152602001600020600082825401925050819055506124ba8361247785600088611e7f565b7c02000000000000000000000000000000000000000000000000000000007c01000000000000000000000000000000000000000000000000000000001717611ea7565b600460008881526020019081526020016000208190555060007c0200000000000000000000000000000000000000000000000000000000851603612540576000600187019050600060046000838152602001908152602001600020540361253e57600054811461253d578460046000838152602001908152602001600020819055505b5b505b85600073ffffffffffffffffffffffffffffffffffffffff168473ffffffffffffffffffffffffffffffffffffffff167fddf252ad1be2c89b69c2b068fc378daa952ba7f163c4a11628f55a4df523b3ef60405160405180910390a46125aa836000886001611ed2565b600160008154809291906001019190505550505050505050565b6125ce8383612661565b60008373ffffffffffffffffffffffffffffffffffffffff163b1461265c57600080549050600083820390505b61260e6000868380600101945086612048565b612644576040517fd1a57ed600000000000000000000000000000000000000000000000000000000815260040160405180910390fd5b8181106125fb57816000541461265957600080fd5b50505b505050565b600080549050600082036126a1576040517fb562e8dd00000000000000000000000000000000000000000000000000000000815260040160405180910390fd5b6126ae6000848385611db6565b600160406001901b178202600560008573ffffffffffffffffffffffffffffffffffffffff1673ffffffffffffffffffffffffffffffffffffffff16815260200190815260200160002060008282540192505081905550612725836127166000866000611e7f565b61271f8561281c565b17611ea7565b6004600083815260200190815260200160002081905550600080838301905073ffffffffffffffffffffffffffffffffffffffff85169150828260007fddf252ad1be2c89b69c2b068fc378daa952ba7f163c4a11628f55a4df523b3ef600080a4600183015b8181146127c657808360007fddf252ad1be2c89b69c2b068fc378daa952ba7f163c4a11628f55a4df523b3ef600080a460018101905061278b565b5060008203612801576040517f2e07630000000000000000000000000000000000000000000000000000000000815260040160405180910390fd5b8060008190555050506128176000848385611ed2565b505050565b60006001821460e11b9050919050565b6000604051905090565b600080fd5b600080fd5b60007fffffffff0000000000000000000000000000000000000000000000000000000082169050919050565b61287581612840565b811461288057600080fd5b50565b6000813590506128928161286c565b92915050565b6000602082840312156128ae576128ad612836565b5b60006128bc84828501612883565b91505092915050565b60008115159050919050565b6128da816128c5565b82525050565b60006020820190506128f560008301846128d1565b92915050565b600081519050919050565b600082825260208201905092915050565b60005b8381101561293557808201518184015260208101905061291a565b60008484015250505050565b6000601f19601f8301169050919050565b600061295d826128fb565b6129678185612906565b9350612977818560208601612917565b61298081612941565b840191505092915050565b600060208201905081810360008301526129a58184612952565b905092915050565b6000819050919050565b6129c0816129ad565b81146129cb57600080fd5b50565b6000813590506129dd816129b7565b92915050565b6000602082840312156129f9576129f8612836565b5b6000612a07848285016129ce565b91505092915050565b600073ffffffffffffffffffffffffffffffffffffffff82169050919050565b6000612a3b82612a10565b9050919050565b612a4b81612a30565b82525050565b6000602082019050612a666000830184612a42565b92915050565b612a7581612a30565b8114612a8057600080fd5b50565b600081359050612a9281612a6c565b92915050565b60008060408385031215612aaf57612aae612836565b5b6000612abd85828601612a83565b9250506020612ace858286016129ce565b9150509250929050565b612ae1816129ad565b82525050565b6000602082019050612afc6000830184612ad8565b92915050565b600080600060608486031215612b1b57612b1a612836565b5b6000612b2986828701612a83565b9350506020612b3a86828701612a83565b9250506040612b4b868287016129ce565b9150509250925092565b6000819050919050565b6000612b7a612b75612b7084612a10565b612b55565b612a10565b9050919050565b6000612b8c82612b5f565b9050919050565b6000612b9e82612b81565b9050919050565b612bae81612b93565b82525050565b6000602082019050612bc96000830184612ba5565b92915050565b600080fd5b600080fd5b7f4e487b7100000000000000000000000000000000000000000000000000000000600052604160045260246000fd5b612c1182612941565b810181811067ffffffffffffffff82111715612c3057612c2f612bd9565b5b80604052505050565b6000612c4361282c565b9050612c4f8282612c08565b919050565b600067ffffffffffffffff821115612c6f57612c6e612bd9565b5b612c7882612941565b9050602081019050919050565b82818337600083830152505050565b6000612ca7612ca284612c54565b612c39565b905082815260208101848484011115612cc357612cc2612bd4565b5b612cce848285612c85565b509392505050565b600082601f830112612ceb57612cea612bcf565b5b8135612cfb848260208601612c94565b91505092915050565b600060208284031215612d1a57612d19612836565b5b600082013567ffffffffffffffff811115612d3857612d3761283b565b5b612d4484828501612cd6565b91505092915050565b600060208284031215612d6357612d62612836565b5b6000612d7184828501612a83565b91505092915050565b60008060408385031215612d9157612d90612836565b5b6000612d9f858286016129ce565b9250506020612db0858286016129ce565b9150509250929050565b612dc3816128c5565b8114612dce57600080fd5b50565b600081359050612de081612dba565b92915050565b60008060408385031215612dfd57612dfc612836565b5b6000612e0b85828601612a83565b9250506020612e1c85828601612dd1565b9150509250929050565b600067ffffffffffffffff821115612e4157612e40612bd9565b5b612e4a82612941565b9050602081019050919050565b6000612e6a612e6584612e26565b612c39565b905082815260208101848484011115612e8657612e85612bd4565b5b612e91848285612c85565b509392505050565b600082601f830112612eae57612ead612bcf565b5b8135612ebe848260208601612e57565b91505092915050565b60008060008060808587031215612ee157612ee0612836565b5b6000612eef87828801612a83565b9450506020612f0087828801612a83565b9350506040612f11878288016129ce565b925050606085013567ffffffffffffffff811115612f3257612f3161283b565b5b612f3e87828801612e99565b91505092959194509250565b600080600060608486031215612f6357612f62612836565b5b6000612f7186828701612a83565b9350506020612f82868287016129ce565b9250506040612f93868287016129ce565b9150509250925092565b60008060408385031215612fb457612fb3612836565b5b6000612fc285828601612a83565b9250506020612fd385828601612a83565b9150509250929050565b7f4e487b7100000000000000000000000000000000000000000000000000000000600052602260045260246000fd5b6000600282049050600182168061302457607f821691505b60208210810361303757613036612fdd565b5b50919050565b7f4e487b7100000000000000000000000000000000000000000000000000000000600052601160045260246000fd5b6000613077826129ad565b9150613082836129ad565b925082820390508181111561309a5761309961303d565b5b92915050565b60006130ab826129ad565b91506130b6836129ad565b92508282026130c4816129ad565b915082820484148315176130db576130da61303d565b5b5092915050565b60008190508160005260206000209050919050565b60006020601f8301049050919050565b600082821b905092915050565b6000600883026131447fffffffffffffffffffffffffffffffffffffffffffffffffffffffffffffffff82613107565b61314e8683613107565b95508019841693508086168417925050509392505050565b600061318161317c613177846129ad565b612b55565b6129ad565b9050919050565b6000819050919050565b61319b83613166565b6131af6131a782613188565b848454613114565b825550505050565b600090565b6131c46131b7565b6131cf818484613192565b505050565b5b818110156131f3576131e86000826131bc565b6001810190506131d5565b5050565b601f82111561323857613209816130e2565b613212846130f7565b81016020851015613221578190505b61323561322d856130f7565b8301826131d4565b50505b505050565b600082821c905092915050565b600061325b6000198460080261323d565b1980831691505092915050565b6000613274838361324a565b9150826002028217905092915050565b61328d826128fb565b67ffffffffffffffff8111156132a6576132a5612bd9565b5b6132b0825461300c565b6132bb8282856131f7565b600060209050601f8311600181146132ee57600084156132dc578287015190505b6132e68582613268565b86555061334e565b601f1984166132fc866130e2565b60005b82811015613324578489015182556001820191506020850194506020810190506132ff565b86831015613341578489015161333d601f89168261324a565b8355505b6001600288020188555050505b505050505050565b7f4572726f723a20596f75206d75737420626520746865206f776e6572206f662060008201527f74686973204e4654000000000000000000000000000000000000000000000000602082015250565b60006133b2602883612906565b91506133bd82613356565b604082019050919050565b600060208201905081810360008301526133e1816133a5565b9050919050565b7f4572726f723a204e4654206861736e27742066696e6973686564206c6f636b6560008201527f6420757020706572696f64000000000000000000000000000000000000000000602082015250565b6000613444602b83612906565b915061344f826133e8565b604082019050919050565b6000602082019050818103600083015261347381613437565b9050919050565b7f48617320636c61696d61626c6520726577617264000000000000000000000000600082015250565b60006134b0601483612906565b91506134bb8261347a565b602082019050919050565b600060208201905081810360008301526134df816134a3565b9050919050565b60006134f1826129ad565b91506134fc836129ad565b92508282019050808211156135145761351361303d565b5b92915050565b7f556e617574686f72697a65642e204f6e6c7920666f7220646972656374204e4660008201527f5469206f776e6572732e00000000000000000000000000000000000000000000602082015250565b6000613576602a83612906565b91506135818261351a565b604082019050919050565b600060208201905081810360008301526135a581613569565b9050919050565b60006040820190506135c16000830185612a42565b6135ce6020830184612ad8565b9392505050565b6000815190506135e481612a6c565b92915050565b600060208284031215613600576135ff612836565b5b600061360e848285016135d5565b91505092915050565b7f506c6174666f726d2077616c6c65742063616e6e6f7420636c61696d00000000600082015250565b600061364d601c83612906565b915061365882613617565b602082019050919050565b6000602082019050818103600083015261367c81613640565b9050919050565b600081905092915050565b6000613699826128fb565b6136a38185613683565b93506136b3818560208601612917565b80840191505092915050565b60006136cb828561368e565b91506136d7828461368e565b91508190509392505050565b7f4f776e61626c653a206e6577206f776e657220697320746865207a65726f206160008201527f6464726573730000000000000000000000000000000000000000000000000000602082015250565b600061373f602683612906565b915061374a826136e3565b604082019050919050565b6000602082019050818103600083015261376e81613732565b9050919050565b7f4e465469206973206f6e206c6f636b2d757020706572696f6400000000000000600082015250565b60006137ab601983612906565b91506137b682613775565b602082019050919050565b600060208201905081810360008301526137da8161379e565b9050919050565b7f4f776e61626c653a2063616c6c6572206973206e6f7420746865206f776e6572600082015250565b6000613817602083612906565b9150613822826137e1565b602082019050919050565b600060208201905081810360008301526138468161380a565b9050919050565b600081519050919050565b600082825260208201905092915050565b60006138748261384d565b61387e8185613858565b935061388e818560208601612917565b61389781612941565b840191505092915050565b60006080820190506138b76000830187612a42565b6138c46020830186612a42565b6138d16040830185612ad8565b81810360608301526138e38184613869565b905095945050505050565b6000815190506138fd8161286c565b92915050565b60006020828403121561391957613918612836565b5b6000613927848285016138ee565b91505092915050565b7f4d616e6167654c69666520546f6b656e206973206e6f74207365740000000000600082015250565b6000613966601b83612906565b915061397182613930565b602082019050919050565b6000602082019050818103600083015261399581613959565b905091905056fea2646970667358221220e882c4ccbb4bf8fd3794ff00191314009d46945866929bfcff73b717db84fced64736f6c6343000811003368747470733a2f2f69776562336170692e6d616e6167656c6966656170692e636f2f6170692f76312f6e6674732f",
  "linkReferences": {},
  "deployedLinkReferences": {}
}